:100000000C942A000C9477090C94AA090C94DD092D
:100010000C9447000C9447000C9447000C94470044
:100020000C9447000C9447000C9447000C94470034
:100030000C9447000C9447000C9447000C94470024
:100040000C94DA0F0C9447000C9447000C94470072
:100050000C94470011241FBECFE5D8E0DEBFCDBF12
:1000600011E0A0E6B0E0E4ECF0E502C005900D92EE
:10007000AE3FB107D9F712E0AEEFB1E001C01D927B
:10008000A930B107E1F70E94A21F0C9460280C94DC
:100090000000EF92FF920F931F937B018C0120E0F1
:1000A00030E040E05FE40E94490388238CF0C801FF
:1000B000B70120E030E040E05FE40E94C1010E940F
:1000C000A9039B01AC01205030404040504806C07D
:1000D000C801B7010E94A9039B01AC01B901CA0183
:1000E0001F910F91FF90EF900895A0E0B0E0EBE733
:1000F000F0E00C942928DC012B01FA019C9192304C
:1001000008F439C1EB018881823008F433C194309E
:1001100069F4843009F02FC111969C91119789815F
:10012000981709F428C1AEE8B0E025C1843009F47D
:1001300021C18230A9F4923009F01DC19A01AD01AC
:1001400088E0EA010990AE01E90109929E0181501F
:10015000C1F7E201898111969C918923818308C1AD
:10016000923009F407C112962D903C901397EB0141
:100170008A819B811496AD90BD90CD90DC901797AD
:10018000EC80FD800E811F819101281B390BB90184
:1001900037FF04C066277727621B730B6032710537
:1001A0000CF061C0121613066CF537014801062EDB
:1001B00004C096948794779467940A94D2F721E0C8
:1001C00030E040E050E004C0220F331F441F551FB1
:1001D0006A95D2F721503040404050402E213F21B7
:1001E00040235123211531054105510521F021E01E
:1001F00030E040E050E079018A01E628F72808293C
:1002000019293CC0232BD1F1260E371E350146019A
:10021000062E04C096948794779467940A94D2F734
:1002200021E030E040E050E004C0220F331F441FC3
:10023000551F6A95D2F721503040404050402A2146
:100240003B214C215D21211531054105510521F04E
:1002500021E030E040E050E059016A01A628B728CB
:10026000C828D9280BC0821593052CF01C01AA249C
:10027000BB24650103C0EE24FF24870111969C91E5
:10028000D20111968C91981709F445C0992339F041
:10029000A80197012A193B094C095D0906C0A6016E
:1002A00095012E193F09400B510B57FD08C01182D3
:1002B0003382228224833583468357831DC081E0A5
:1002C00081833382228288279927DC01821B930B4A
:1002D000A40BB50B84839583A683B7830DC0220F2F
:1002E000331F441F551F24833583468357838281E0
:1002F000938101979383828324813581468157813D
:10030000DA01C9010197A109B1098F5F9F4FAF4F72
:10031000BF4328F30BC0918333822282EA0CFB1C7B
:100320000C1D1D1DE482F5820683178383E0808304
:10033000248135814681578157FF1AC0C901AA27F8
:1003400097FDA095BA2F81709070A070B0705695EF
:10035000479537952795822B932BA42BB52B848318
:100360009583A683B7838281938101969383828349
:10037000DF0101C0D201CD01CDB7DEB7E2E10C94BF
:100380004528A0E2B0E0E7ECF1E00C943528698361
:100390007A838B839C832D833E834F835887E9E048
:1003A000EE2EF12CEC0EFD1ECE010196B7010E943F
:1003B0009A058E010F5E1F4FCE010596B8010E946F
:1003C0009A058A8991E089278A8BC701B801AE0115
:1003D000475E5F4F0E9475000E94C504A096E6E04C
:1003E0000C945128A0E2B0E0E8EFF1E00C9435283D
:1003F00069837A838B839C832D833E834F835887C5
:10040000F9E0EF2EF12CEC0EFD1ECE010196B701A6
:100410000E949A058E010F5E1F4FCE010596B8010E
:100420000E949A05C701B801AE01475E5F4F0E9466
:1004300075000E94C504A096E6E00C945128A0E245
:10044000B0E0E5E2F2E00C94292869837A838B839B
:100450009C832D833E834F835887CE010196BE0136
:10046000675F7F4F0E949A05CE010596BE016F5EC1
:100470007F4F0E949A059985923088F08989823051
:10048000C8F0943019F4823051F404C0843029F457
:10049000923081F48EE890E0C6C0923049F420E0BA
:1004A0009A858A89981321E02A87CE010996BBC0D4
:1004B000823049F420E09A858A89981321E02A8BBA
:1004C000CE014196B0C02D843E844F8458886D88FB
:1004D0007E888F88988CEE24FF248701AA24BB2471
:1004E000650140E050E060E070E0E0E0F0E0C10174
:1004F00081709070892BE9F0E60CF71C081D191D1E
:100500009A01AB012A0D3B1D4C1D5D1D80E090E062
:10051000A0E0B0E0E614F7040805190520F481E036
:1005200090E0A0E0B0E0BA01A901480F591F6A1F8E
:100530007B1FAA0CBB1CCC1CDD1C97FE08C081E0F5
:1005400090E0A0E0B0E0A82AB92ACA2ADB2A3196B6
:10055000E032F10549F0660C771C881C991C569412
:10056000479437942794C3CFFA85EA892B893C892D
:100570008B859C85280F391F2E5F3F4F17C0CA01FE
:1005800081709070892B61F016950795F794E79428
:1005900080E090E0A0E0B0E8E82AF92A0A2B1B2BC3
:1005A00076956795579547952F5F3F4F77FDE7CF36
:1005B0000CC0440F551F661F771F17FD4160EE0CDE
:1005C000FF1C001F111F21503040403090E05907A0
:1005D00090E0690790E4790760F32B8F3C8FDB0193
:1005E000CA018F779070A070B07080349105A1051A
:1005F000B10561F447FD0AC0E114F10401051105DC
:1006000029F0405C5F4F6F4F7F4F40781A8EFE1786
:1006100011F081E08A8F4D8F5E8F6F8F78A383E01A
:10062000898FCE0149960E94C504A096E2E10C9400
:100630004528A8E1B0E0EFE1F3E00C9435286983A8
:100640007A838B839C832D833E834F83588789E0F5
:10065000E82EF12CEC0EFD1ECE010196B7010E9492
:100660009A058E010F5E1F4FCE010596B8010E94BC
:100670009A058985823040F08989823028F0C70147
:10068000B8010E94120601C08FEF6896E6E00C9454
:100690005128A8E1B0E0EFE4F3E00C943528698339
:1006A0007A838B839C832D833E834F83588789E095
:1006B000E82EF12CEC0EFD1ECE010196B7010E9432
:1006C0009A058E010F5E1F4FCE010596B8010E945C
:1006D0009A058985823040F08989823028F0C701E7
:1006E000B8010E94120601C08FEF6896E6E00C94F4
:1006F0005128A8E1B0E0EFE7F3E00C9435286983D6
:100700007A838B839C832D833E834F83588789E034
:10071000E82EF12CEC0EFD1ECE010196B7010E94D1
:100720009A058E010F5E1F4FCE010596B8010E94FB
:100730009A058985823040F08989823028F0C70186
:10074000B8010E94120601C081E06896E6E00C94B0
:100750005128ACE0B0E0EFEAF3E00C94392869836B
:100760007A838B839C83CE010196BE016B5F7F4FA2
:100770000E949A058D81823061F1823050F184307F
:1007800021F48E81882351F12EC02F81388537FDC9
:1007900020C06E812F3131051CF06623F9F023C093
:1007A0008EE190E0821B930B29853A854B855C8511
:1007B00004C056954795379527958A95D2F76623B5
:1007C000B1F050954095309521953F4F4F4F5F4F79
:1007D0000EC020E030E040E050E009C02FEF3FEFD6
:1007E0004FEF5FE704C020E030E040E050E8B9019F
:1007F000CA012C96E2E00C945528A8E0B0E0E3E0B2
:10080000F4E00C9431287B018C01611571058105A0
:10081000910519F482E0898360C083E089838EE1C9
:10082000C82ED12CDC82CB82ED82FE820F8318870A
:10083000C801B7010E947604FC013197F7FF3BC065
:10084000222733272E1B3F0B57016801022E04C0BD
:10085000D694C794B794A7940A94D2F740E050E096
:1008600060E070E081E090E0A0E0B0E004C0880FBC
:10087000991FAA1FBB1F2A95D2F70197A109B10999
:100880008E219F21A023B1230097A105B10521F05E
:1008900041E050E060E070E04A295B296C297D2945
:1008A0004D835E836F8378878EE190E08E1B9F0B74
:1008B0009C838B8312C0309781F00E2E04C0EE0C07
:1008C000FF1C001F111F0A94D2F7ED82FE820F83D6
:1008D0001887CE1ADF0ADC82CB821A82CE010196FB
:1008E0000E94C5042896EAE00C944D28EF92FF92EE
:1008F0000F931F937B018C0180E0E81680E0F806DF
:1009000081E0080780E0180788F48FEFE816F1040B
:100910000105110531F028F088E090E0A0E0B0E09A
:1009200017C080E090E0A0E0B0E012C080E0E816E0
:1009300080E0F80680E0080781E0180728F088E1E9
:1009400090E0A0E0B0E004C080E190E0A0E0B0E082
:1009500020E230E040E050E0281B390B4A0B5B0BF3
:1009600004C016950795F794E7948A95D2F7F70196
:10097000EA56FF4F8081281B310941095109C901FD
:100980001F910F91FF90EF900895DF92EF92FF92E9
:100990000F931F93FC01E480F58006811781D180BD
:1009A0008081823048F480E090E0A0E1B0E0E82A65
:1009B000F92A0A2B1B2BA5C0843009F49FC0823072
:1009C00021F4EE24FF24870105C0E114F1040105A0
:1009D000110519F4E0E0F0E096C0628173819FEFA9
:1009E000623879070CF05BC022E83FEF261B370B1B
:1009F0002A3131052CF020E030E040E050E02AC000
:100A0000B801A701022E04C07695679557954795C2
:100A10000A94D2F781E090E0A0E0B0E004C0880F33
:100A2000991FAA1FBB1F2A95D2F70197A109B109E7
:100A30008E219F21A023B1230097A105B10521F0AC
:100A400081E090E0A0E0B0E09A01AB01282B392BC7
:100A50004A2B5B2BDA01C9018F779070A070B070C0
:100A600080349105A105B10539F427FF09C0205C48
:100A70003F4F4F4F5F4F04C0215C3F4F4F4F5F4F81
:100A8000E0E0F0E02030A0E03A07A0E04A07A0E470
:100A90005A0710F0E1E0F0E079018A0127C06038E0
:100AA000710564F5FB01E158FF4FD801C7018F774D
:100AB0009070A070B07080349105A105B10539F433
:100AC000E7FE0DC080E490E0A0E0B0E004C08FE35A
:100AD00090E0A0E0B0E0E80EF91E0A1F1B1F17FF10
:100AE00005C016950795F794E794319687E016951B
:100AF0000795F794E7948A95D1F705C0EE24FF2473
:100B00008701EFEFF0E06E2F679566276795902FCE
:100B10009F77D794DD24D7948E2F8695492F462B27
:100B2000582F5D29B701CA011F910F91FF90EF90D7
:100B3000DF900895FC01DB01408151812281622F09
:100B40006F7770E0221F2227221F9381892F880F41
:100B5000822B282F30E0991F9927991F11969C937B
:100B6000119721153105A9F541155105610571054B
:100B700011F482E037C082E89FEF13969C938E9326
:100B800012979A01AB0167E0220F331F441F551FD4
:100B90006A95D1F783E08C930DC0220F331F441F59
:100BA000551F12968D919C911397019713969C93C4
:100BB0008E931297203080E0380780E0480780E469
:100BC000580758F314962D933D934D935C931797C4
:100BD00008952F3F310579F44115510561057105DF
:100BE00019F484E08C93089564FF03C081E08C9332
:100BF00012C01C9210C02F57304013963C932E9376
:100C0000129783E08C9387E0440F551F661F771F70
:100C10008A95D1F7706414964D935D936D937C9390
:100C2000179708951F93DC01FB019C91923008F403
:100C300047C08081823008F443C0943051F411964B
:100C40001C91843099F58181682F70E0611B7109D6
:100C50003FC0843021F0923031F48230B9F181818B
:100C6000882389F12DC011961C9111978230F1F0E3
:100C700081811817D9F412962D913C911397828196
:100C800093818217930794F028173907BCF01496C4
:100C90008D919D910D90BC91A02D2481358146812F
:100CA0005781281739074A075B0718F4112341F0C9
:100CB0000AC082179307A407B50740F4112319F05F
:100CC00061E070E005C06FEF7FEF02C060E070E0B0
:100CD000CB011F910895DF93CF93CDB7DEB7F89482
:100CE00080E0CF91DF910895DF93CF93CDB7DEB74A
:100CF000789480E0CF91DF910895DF93CF93CDB7C3
:100D0000DEB7F89480E0CF91DF910895DF93CF9321
:100D1000CDB7DEB72E970FB6F894DEBF0FBECDBFAE
:100D200081E08A83198293C18981282F30E0C9012B
:100D3000880F991F820F931FFC01E756FE4F808199
:100D40008D3309F082C0A5E5B0E0E5E5F0E08081F3
:100D50008C7F8C938981282F30E0C901880F991FDF
:100D6000820F931FFC01E956FE4F8081282F30E04F
:100D70003E872D878D859E8588339105B1F02D8521
:100D80003E852933310534F48D859E858733910561
:100D900031F123C02D853E852933310571F08D85D4
:100DA0009E858A33910589F018C0A5E5B0E0E5E598
:100DB000F0E0808181608C9312C0A5E5B0E0E5E5AC
:100DC000F0E0808182608C930AC0A5E5B0E0E5E5A3
:100DD000F0E0808183608C9302C082E08A838A8104
:100DE000823009F43AC18981282F30E0C901880F87
:100DF000991F820F931FFC01E856FE4F8081282F18
:100E000030E03C872B878B859C858B33910531F0B7
:100E10002B853C852C33310549F010C0ABE5B0E0A3
:100E2000EBE5F0E0808180648C930AC0ABE5B0E034
:100E3000EBE5F0E080818F7B8C9302C082E08A83B7
:100E40008A81823009F409C1FFC08981282F30E0EE
:100E5000C901880F991F820F931FFC01E756FE4FAF
:100E600080818E3309F07EC0A5E5B0E0E5E5F0E0D5
:100E70008081837F8C938981282F30E0C901880F7E
:100E8000991F820F931FFC01E956FE4F8081282F86
:100E900030E03A87298789859A8588339105B1F0B2
:100EA00029853A852933310534F489859A85873334
:100EB000910531F123C029853A852933310571F037
:100EC00089859A858A33910589F018C0A5E5B0E037
:100ED000E5E5F0E0808184608C9312C0A5E5B0E088
:100EE000E5E5F0E0808188608C930AC0A5E5B0E07C
:100EF000E5E5F0E080818C608C9302C082E08A831B
:100F00008A81823009F4A9C08981282F30E0C90183
:100F1000880F991F820F931FFC01E856FE4F8081B6
:100F2000282F30E038872F838F8198858B33910568
:100F300031F02F8138852C33310549F010C0ABE5F5
:100F4000B0E0EBE5F0E0808180688C937DC0ABE59C
:100F5000B0E0EBE5F0E080818F778C9375C082E0A4
:100F60008A8372C08981282F30E0C901880F991FB8
:100F7000820F931FFC01E756FE4F80818F3309F0EB
:100F800061C08981282F30E0C901880F991F820F25
:100F9000931FFC01E956FE4F8081282F30E03E83ED
:100FA0002D838D819E818933910531F02D813E8184
:100FB0002A33310549F010C0A4E5B0E0E4E5F0E0E3
:100FC00080818F7B8C930AC0A4E5B0E0E4E5F0E07B
:100FD000808180648C9302C082E08A838A8182301F
:100FE000E1F18981282F30E0C901880F991F820F14
:100FF000931FFC01E856FE4F8081282F30E03C8390
:101000002B838B819C818B33910531F02B813C812B
:101010002C33310549F010C0ABE5B0E0EBE5F0E072
:10102000808180628C930AC0ABE5B0E0EBE5F0E034
:1010300080818F7D8C9302C082E08A838A81823096
:1010400061F002C082E08A8389818F5F89839091F9
:1010500096018981891708F467CE8A81823009F068
:101060001A828A812E960FB6F894DEBF0FBECDBFCE
:10107000CF91DF910895DF93CF9300D0CDB7DEB746
:101080008A8381E089838A818D3341F4ABE5B0E0C6
:10109000EBE5F0E0808180648C9318C08A818E3308
:1010A00041F4ABE5B0E0EBE5F0E0808180688C9343
:1010B0000DC08A818F3341F4ABE5B0E0EBE5F0E0A1
:1010C000808180628C9302C082E089838981823032
:1010D00009F0198289810F900F90CF91DF910895C7
:1010E000DF93CF9300D0CDB7DEB78A8381E08983C9
:1010F0008A818D3341F4ABE5B0E0EBE5F0E080812F
:101100008F7B8C9318C08A818E3341F4ABE5B0E0BD
:10111000EBE5F0E080818F778C930DC08A818F336F
:1011200041F4ABE5B0E0EBE5F0E080818F7D8C939E
:1011300002C082E089838981823009F01982898125
:101140000F900F90CF91DF910895DF93CF93CDB79C
:10115000DEB729970FB6F894DEBF0FBECDBF8A83E6
:101160006B8381E089838A818D3309F043C0A5E5D3
:10117000B0E0E5E5F0E080818C7F8C938B81282FB7
:1011800030E0398728878885998588339105B9F0BB
:1011900028853985293331053CF48885998587333D
:1011A000910509F496C023C0288539852933310576
:1011B00071F0888599858A33910589F018C0A5E575
:1011C000B0E0E5E5F0E0808181608C9382C0A5E528
:1011D000B0E0E5E5F0E0808182608C937AC0A5E51F
:1011E000B0E0E5E5F0E0808183608C9372C082E03E
:1011F00089836FC08A818E3309F043C0A5E5B0E0D2
:10120000E5E5F0E08081837F8C938B81282F30E0AF
:101210003F832E838E819F8188339105B9F02E8183
:101220003F81293331053CF48E819F8187339105BD
:1012300009F44FC023C02E813F812933310571F05D
:101240008E819F818A33910589F018C0A5E5B0E0B1
:10125000E5E5F0E0808184608C933BC0A5E5B0E0DB
:10126000E5E5F0E0808188608C9333C0A5E5B0E0CF
:10127000E5E5F0E080818C608C932BC082E089836F
:1012800028C08A818F3319F58B81282F30E03D8368
:101290002C838C819D818933910531F02C813D8196
:1012A0002A33310549F010C0A4E5B0E0E4E5F0E0F0
:1012B00080818F7B8C930DC0A4E5B0E0E4E5F0E085
:1012C000808180648C9305C082E0898302C082E0C3
:1012D00089838981823009F01982898129960FB624
:1012E000F894DEBF0FBECDBFCF91DF9108951F925E
:1012F0000F920FB60F9211242F933F934F935F934A
:101300006F937F938F939F93AF93BF93EF93FF93CD
:10131000DF93CF93CDB7DEB78091FE019091FF01AF
:10132000009729F0E091FE01F091FF010995CF911E
:10133000DF91FF91EF91BF91AF919F918F917F913D
:101340006F915F914F913F912F910F900FBE0F9032
:101350001F9018951F920F920FB60F9211242F9382
:101360003F934F935F936F937F938F939F93AF932D
:10137000BF93EF93FF93DF93CF93CDB7DEB7809109
:10138000000290910102009729F0E0910002F09193
:1013900001020995CF91DF91FF91EF91BF91AF913C
:1013A0009F918F917F916F915F914F913F912F917D
:1013B0000F900FBE0F901F9018951F920F920FB6AF
:1013C0000F9211242F933F934F935F936F937F93CB
:1013D0008F939F93AF93BF93EF93FF93DF93CF933D
:1013E000CDB7DEB78091020290910302009729F0F9
:1013F000E0910202F09103020995CF91DF91FF91F4
:10140000EF91BF91AF919F918F917F916F915F917C
:101410004F913F912F910F900FBE0F901F901895F5
:10142000DF93CF9300D000D0CDB7DEB79B838A8304
:101430006C8381E089838A819B81009789F08C810C
:101440008D538C838C81882F90E02A813B81880F7B
:10145000991FFC01E250FE4F31832083198202C0A4
:1014600083E0898389810F900F900F900F90CF9127
:10147000DF910895DF93CF930F92CDB7DEB7198236
:1014800089810F90CF91DF910895DF93CF9300D0A2
:1014900000D000D0CDB7DEB78A836B834C8381E068
:1014A00089838A81843008F0D0C08B81883008F02D
:1014B000CCC08C81823008F0C8C08A81282F30E0EF
:1014C0003E832D836D817E816130710509F441C0B9
:1014D0008D819E818230910534F42D813E812115CC
:1014E000310571F0B0C06D817E816230710509F403
:1014F00059C08D819E818330910509F47CC0A3C0C1
:10150000AAE3B0E0EAE3F0E08081482F8B81282F46
:1015100030E081E090E002C0880F991F2A95E2F741
:10152000809584238C93AAE3B0E0EAE3F0E0808125
:10153000482F8C81282F30E08B81882F90E0B901D3
:1015400002C0660F771F8A95E2F7CB01842B8C933C
:101550007AC0A7E3B0E0E7E3F0E08081482F8B8119
:10156000282F30E081E090E002C0880F991F2A9573
:10157000E2F7809584238C93A7E3B0E0E7E3F0E003
:101580008081482F8C81282F30E08B81882F90E03C
:10159000B90102C0660F771F8A95E2F7CB01842B51
:1015A0008C9351C0A4E3B0E0E4E3F0E08081482FE5
:1015B0008B81282F30E081E090E002C0880F991FD6
:1015C0002A95E2F7809584238C93A4E3B0E0E4E3CA
:1015D000F0E08081482F8C81282F30E08B81882F8C
:1015E00090E0B90102C0660F771F8A95E2F7CB0140
:1015F000842B8C9328C0A1E3B0E0E1E3F0E080818C
:10160000482F8B81282F30E081E090E002C0880FC6
:10161000991F2A95E2F7809584238C93A1E3B0E08B
:10162000E1E3F0E08081482F8C81282F30E08B812E
:10163000882F90E0B90102C0660F771F8A95E2F704
:10164000CB01842B8C93198202C082E0898389812B
:1016500026960FB6F894DEBF0FBECDBFCF91DF91B7
:101660000895DF93CF9300D000D000D0CDB7DEB780
:101670008A836B834C8381E089838A81843008F07C
:10168000D3C08B81883008F0CFC08C81823020F0AD
:101690008C81823008F0C8C08A81282F30E03E83D8
:1016A0002D836D817E816130710509F441C08D818A
:1016B0009E818230910534F42D813E8121153105C2
:1016C00071F0B0C06D817E816230710509F459C03E
:1016D0008D819E818330910509F47CC0A3C0ABE36A
:1016E000B0E0EBE3F0E08081482F8B81282F30E0E1
:1016F00081E090E002C0880F991F2A95E2F780955B
:1017000084238C93ABE3B0E0EBE3F0E08081482FDF
:101710008C81282F30E08B81882F90E0B90102C0A6
:10172000660F771F8A95E2F7CB01842B8C937AC0E2
:10173000A8E3B0E0E8E3F0E08081482F8B81282F18
:1017400030E081E090E002C0880F991F2A95E2F70F
:10175000809584238C93A8E3B0E0E8E3F0E08081F7
:10176000482F8C81282F30E08B81882F90E0B901A1
:1017700002C0660F771F8A95E2F7CB01842B8C930A
:1017800051C0A5E3B0E0E5E3F0E08081482F8B8114
:10179000282F30E081E090E002C0880F991F2A9541
:1017A000E2F7809584238C93A5E3B0E0E5E3F0E0D5
:1017B0008081482F8C81282F30E08B81882F90E00A
:1017C000B90102C0660F771F8A95E2F7CB01842B1F
:1017D0008C9328C0A2E3B0E0E2E3F0E08081482FE0
:1017E0008B81282F30E081E090E002C0880F991FA4
:1017F0002A95E2F7809584238C93A2E3B0E0E2E39C
:10180000F0E08081482F8C81282F30E08B81882F59
:1018100090E0B90102C0660F771F8A95E2F7CB010D
:10182000842B8C93198202C082E089838981269659
:101830000FB6F894DEBF0FBECDBFCF91DF910895F4
:10184000DF93CF9300D000D00F92CDB7DEB78A835D
:101850006B8381E089838A81843008F074C08B8136
:10186000883008F070C08A81282F30E03D832C83B7
:101870008C819D818130910549F12C813D812230FF
:1018800031052CF48C819D81009761F05AC02C8128
:101890003D812230310571F18C819D81833091052C
:1018A000E9F14FC0ABE3B0E0EBE3F0E08081482F1B
:1018B0008B81282F30E081E090E0022E02C0880F5B
:1018C000991F0A94E2F784278C933BC0A8E3B0E009
:1018D000E8E3F0E08081482F8B81282F30E081E021
:1018E00090E0022E02C0880F991F0A94E2F7842725
:1018F0008C9327C0A5E3B0E0E5E3F0E08081482FBA
:101900008B81282F30E081E090E0022E02C0880F0A
:10191000991F0A94E2F784278C9313C0A2E3B0E0E6
:10192000E2E3F0E08081482F8B81282F30E081E0D6
:1019300090E0022E02C0880F991F0A94E2F78427D4
:101940008C93198202C082E0898389810F900F9065
:101950000F900F900F90CF91DF910895DF93CF9369
:10196000CDB7DEB727970FB6F894DEBF0FBECDBF59
:101970008A836B835D834C8381E089838C819D8125
:10198000009709F47DC08A81843008F076C08B818D
:10199000883008F072C08A81282F30E03F832E8380
:1019A0004E815F814130510559F18E819F81823096
:1019B000910534F42E813F812115310569F05BC01A
:1019C0004E815F814230510579F18E819F81833054
:1019D000910509F43DC04FC0E9E3F0E08081282F74
:1019E00030E08B81882F90E0A90102C05595479582
:1019F0008A95E2F7CA018170EC81FD8180833BC04A
:101A0000E6E3F0E08081282F30E08B81882F90E0A2
:101A1000A90102C0559547958A95E2F7CA018170E0
:101A2000EC81FD81808327C0E3E3F0E08081282FF3
:101A300030E08B81882F90E0A90102C05595479531
:101A40008A95E2F7CA018170EC81FD81808313C021
:101A5000E0E3F0E08081282F30E08B81882F90E058
:101A6000A90102C0559547958A95E2F7CA01817090
:101A7000EC81FD818083198205C082E0898302C0E8
:101A800083E08983898127960FB6F894DEBF0FBE65
:101A9000CDBFCF91DF910895DF93CF930F92CDB754
:101AA000DEB781E08983A6E2B0E0E6E2F0E0808183
:101AB000887F8C93A6E2B0E0E6E2F0E08081866069
:101AC0008C93A7E2B0E0E7E2F0E080818F738C9323
:101AD000A7E2B0E0E7E2F0E0808180648C93A7E2C7
:101AE000B0E0E7E2F0E080818F7D8C93A7E2B0E088
:101AF000E7E2F0E08081807E8C93A7E2B0E0E7E24D
:101B0000F0E0808189608C93A6E2B0E0E6E2F0E04C
:101B1000808188608C93A0E5B0E0E0E5F0E0808112
:101B2000887F8C93A0E5B0E0E0E5F0E08081876EEF
:101B30008C93A6E2B0E0E6E2F0E080818F7D8C93AA
:101B4000A6E2B0E0E6E2F0E0808180688C938981D3
:101B5000823009F0198289810F90CF91DF91089529
:101B6000DF93CF9300D0CDB7DEB78A8381E089833E
:101B7000A6E2B0E0E6E2F0E08081887F8C938A8183
:101B8000893778F08A81882364F0A6E2B0E0E6E243
:101B9000F0E08081982F8A818857892B8C93198255
:101BA00002C082E0898389810F900F90CF91DF91ED
:101BB0000895DF93CF9300D0CDB7DEB78A8381E05D
:101BC0008983A7E2B0E0E7E2F0E080818F738C9335
:101BD0008A818823DCF48A818338C0F4A7E2B0E0EC
:101BE000E7E2F0E08081282F8A81882F90E08058FA
:101BF000904000249695879507949695879507942D
:101C0000982F802D822B8C93198202C082E08983C9
:101C100089810F900F90CF91DF910895DF93CF933B
:101C200000D0CDB7DEB78A8381E089838A81853889
:101C3000A0F08A81853A88F4A7E2B0E0E7E2F0E01C
:101C40008081807E8C93A7E2B0E0E7E2F0E09081B3
:101C50008A81892B8C93198202C082E089838981D1
:101C60000F900F90CF91DF910895DF93CF93CDB771
:101C7000DEB7A6E2B0E0E6E2F0E0808180648C931B
:101C800080E0CF91DF910895DF93CF9300D0CDB75F
:101C9000DEB78A8381E089838A81873A08F18A8165
:101CA0008F3AF0F4A6E2B0E0E6E2F0E080818072E4
:101CB0008C93A0E5B0E0E0E5F0E08081887F8C9334
:101CC000A0E5B0E0E0E5F0E08081876E8C93A6E2CD
:101CD000B0E0E6E2F0E0808180628C93198202C07D
:101CE00082E0898389810F900F90CF91DF910895D1
:101CF000DF93CF93CDB7DEB7A6E2B0E0E6E2F0E047
:101D000080818F7D8C9380E0CF91DF910895DF9368
:101D1000CF9300D00F92CDB7DEB79B838A8381E04B
:101D200089838A819B810097E1F0E4E2F0E0808181
:101D3000882F90E0EA81FB8191838083EA81FB8197
:101D400020813181E5E2F0E08081882F90E0982FBA
:101D50008827822B932BEA81FB81918380831982D0
:101D600002C083E0898389810F900F900F90CF91FB
:101D7000DF910895DF93CF9300D00F92CDB7DEB7F8
:101D80009B838A8381E089838A819B81009701F10B
:101D9000E4E2F0E0808186958695EA81FB8180838C
:101DA000EA81FB818081282FE5E2F0E08081882FA5
:101DB00090E00024969587950794969587950794CB
:101DC000982F802D822BEA81FB818083198202C0AB
:101DD00083E0898389810F900F900F90CF91DF91DD
:101DE0000895DF93CF9300D00F92CDB7DEB79B83DA
:101DF0008A8381E08983E6E2F0E0808182958F70BA
:101E0000882F90E0817090700097A9F38A819B8160
:101E10000097E1F0E4E2F0E08081882F90E0EA8131
:101E2000FB8191838083EA81FB8120813181E5E21E
:101E3000F0E08081882F90E0982F8827822B932BC9
:101E4000EA81FB8191838083198202C083E08983C8
:101E5000A6E2B0E0E6E2F0E0808180618C938981C7
:101E60000F900F900F90CF91DF910895DF93CF9354
:101E700000D00F92CDB7DEB79B838A8381E0898340
:101E8000E6E2F0E0808182958F70882F90E081708B
:101E900090700097A9F38A819B81009701F1E4E299
:101EA000F0E0808186958695EA81FB818083EA81D6
:101EB000FB818081282FE5E2F0E08081882F90E08F
:101EC0000024969587950794969587950794982F63
:101ED000802D822BEA81FB818083198202C083E0FE
:101EE0008983A6E2B0E0E6E2F0E0808180618C9335
:101EF00089810F900F900F90CF91DF910895DF931C
:101F0000CF9300D00F92CDB7DEB79B838A8381E059
:101F100089838A819B81009741F08A819B8190937C
:101F2000050280930402198202C083E089838981BB
:101F30000F900F900F90CF91DF910895DF93CF9383
:101F4000CDB7DEB7A6E2B0E0E6E2F0E080818068DF
:101F50008C9380E0CF91DF910895DF93CF93CDB73D
:101F6000DEB7A6E2B0E0E6E2F0E080818F778C9306
:101F700080E0CF91DF910895DF93CF93CDB7DEB7A7
:101F8000A6E2B0E0E6E2F0E0808180688C9380E039
:101F9000CF91DF910895DF93CF93CDB7DEB7A6E25F
:101FA000B0E0E6E2F0E080818F778C9380E0CF9123
:101FB000DF9108951F920F920FB60F9211242F9365
:101FC0003F934F935F936F937F938F939F93AF93C1
:101FD000BF93EF93FF93DF93CF93CDB7DEB780919D
:101FE000040290910502009729F0E0910402F0911B
:101FF00005020995CF91DF91FF91EF91BF91AF91CC
:102000009F918F917F916F915F914F913F912F9110
:102010000F900FBE0F901F901895DF93CF9300D0B5
:1020200000D0CDB7DEB781E08A8351C08981282FE7
:1020300030E0C901880F991F820F931FFC01EF55F3
:10204000FE4F40818981282F30E0C901880F991FF8
:10205000820F931FFC01EE55FE4F9081842F692F54
:1020600040E00E94450A8B838981282F30E0C90116
:10207000880F991F820F931FFC01EF55FE4F50816F
:102080008981282F30E0C901880F991F820F931F83
:10209000FC01EE55FE4F40818981282F30E0C901B7
:1020A000880F991F820F931FFC01ED55FE4F908101
:1020B000852F642F492F0E94310B8C838B818823BD
:1020C00061F48C81882349F489818F5F89839091A1
:1020D000A0018981891708F4A9CF8B81882321F475
:1020E0008C81882309F41A828A810F900F900F90B7
:1020F0000F90CF91DF910895DF93CF9300D000D060
:10210000CDB7DEB78A837C836B8381E089838A8144
:10211000895C8A839091A0018A81891708F58A8158
:10212000282F30E0C901880F991F820F931FFC01EF
:10213000EF55FE4F40818A81282F30E0C901880F7A
:10214000991F820F931FFC01EE55FE4F90812B814A
:102150003C81842F692FA9010E94AE0C898302C0A3
:1021600082E0898389810F900F900F900F90CF911B
:10217000DF910895DF93CF9300D000D0CDB7DEB7C5
:1021800081E08C838BE08B83BCC08B818B508A83F6
:1021900019823AC08A81282F30E08981482F50E087
:1021A000C901880F991F880F991F880F991F821BDB
:1021B000930B840F951F880F991FFC01E355FE4F69
:1021C00060818A81282F30E08981482F50E0C90141
:1021D000880F991F880F991F880F991F821B930BD7
:1021E000840F951F880F991FFC01E255FE4F9081C7
:1021F000862F692F41E00E94450A8C838C818823B9
:1022000041F489818F5F89839091AB01898189171E
:1022100008F28C81882361F58A81882F90E09C01E7
:10222000220F331FC901880F991F880F991F880F2C
:10223000991F821B930BFC01EB54FE4F40818A8156
:10224000882F90E09C01220F331FC901880F991F2E
:10225000880F991F880F991F821B930BFC01EA546A
:10226000FE4F9081842F692F41E00E94450A8C83A4
:1022700019823BC08A81282F30E08981482F50E0A5
:10228000C901880F991F880F991F880F991F821BFA
:10229000930B840F951F0596880F991FFC01E3553A
:1022A000FE4F60818A81282F30E08981482F50E0DD
:1022B000C901880F991F880F991F880F991F821BCA
:1022C000930B840F951F880F991FFC01E854FE4F54
:1022D0009081862F692F41E00E94450A8C838C8172
:1022E000882361F489818F5F89838C81882331F40D
:1022F0009091AC018981891708F4BCCF8B818F5FE5
:102300008B839091AA018B81981708F03ECF8C8126
:102310000F900F900F900F90CF91DF910895DF9362
:10232000CF9300D000D0CDB7DEB78B836C8381E034
:102330008A838B818B508B839091AA018B81891723
:1023400008F059C08C818A3008F052C0198249C007
:102350008B81282F30E08981482F50E0C901880FF8
:10236000991F880F991F880F991F821B930B840F49
:10237000951F880F991FFC01E355FE4F60818B81EB
:10238000282F30E08981482F50E0C901880F991F1C
:10239000880F991F880F991F821B930B840F951F1D
:1023A000880F991FFC01E255FE4F40818C81282F38
:1023B00030E08981882F90E0F90102C0F595E7951A
:1023C0008A95E2F7CF01982F9170862F642F492FBD
:1023D0000E94310B8A838A81882379F489818F5FF7
:1023E00089839091AB018981891708F4B1CF05C029
:1023F00082E08A8302C082E08A838A810F900F90F4
:102400000F900F90CF91DF910895DF93CF9300D07D
:102410000F92CDB7DEB78A836B8381E089838A818F
:102420008B508A839091AA018A818917B0F58B819C
:10243000813019F08B81882369F58A81882F90E09B
:102440009C01220F331FC901880F991F880F991F04
:10245000880F991F821B930BFC01EB54FE4F4081A8
:102460008A81882F90E09C01220F331FC901880FB9
:10247000991F880F991F880F991F821B930BFC01CE
:10248000EA54FE4F9081842F692F4B810E94310BBB
:10249000898305C082E0898302C082E089838981C3
:1024A0000F900F900F90CF91DF910895DF93CF930E
:1024B00000D000D0CDB7DEB78A837C836B8381E008
:1024C00089839091AA018A81981798F08A81882F30
:1024D00090E0AC014D5E5F4F8A81282F30E0CA0149
:1024E000B9010E94D927CB01EB81FC81808319823D
:1024F00002C082E0898389810F900F900F900F9026
:10250000CF91DF910895DF93CF93CDB7DEB72797B3
:102510000FB6F894DEBF0FBECDBF8C836D8381E014
:102520008B838D818D3021F08D818E3009F064C0D8
:102530008C818B508C839091AA018C81891708F033
:1025400058C08D81282F30E03F832E838E819F815C
:102550008D30910531F02E813F812E30310519F0FB
:1025600004C01A8202C081E08A8319823BC08C8138
:10257000282F30E08981482F50E0C901880F991F2A
:10258000880F991F880F991F821B930B840F951F2B
:102590000596880F991FFC01E355FE4F60818C81E1
:1025A000282F30E08981482F50E0C901880F991FFA
:1025B000880F991F880F991F821B930B840F951FFB
:1025C000880F991FFC01E854FE4F9081862F692FD8
:1025D0004A810E94310B8B838B81882379F4898116
:1025E0008F5F89839091AC018981891708F4BFCFEF
:1025F00005C082E08B8302C082E08B838B812796AB
:102600000FB6F894DEBF0FBECDBFCF91DF91089516
:10261000DF93CF9300D00F92CDB7DEB781E08983EF
:1026200082E061E041E00E94450A8A8382E061E045
:1026300041E00E94310B8B838A81882309F58B81CD
:102640008823F1F482E060E041E00E94450A8A8339
:1026500082E060E040E00E94310B8B838A81882316
:1026600079F48B81882361F480E060E040E00E948F
:10267000450A8A8380E060E040E00E94310B8B8352
:102680008A81882321F48B81882309F41982898126
:102690000F900F900F90CF91DF910895DF93CF931C
:1026A00000D000D0CDB7DEB781E08A83198239C06F
:1026B0008981882F90E0880F991FFC01E653FE4F17
:1026C00020818981882F90E0880F991FFC01E553B4
:1026D000FE4F9081822F692F41E00E94450A8B8333
:1026E0008981882F90E0880F991FFC01E653FE4FE7
:1026F00020818981882F90E0880F991FFC01E55384
:10270000FE4F9081822F692F40E00E94310B8C8315
:102710008B81882359F48C81882341F489818F5FD0
:1027200089839091C9018981891710F28B8188234F
:1027300021F48C81882309F41A828A810F900F90EA
:102740000F900F90CF91DF910895DF93CF9300D03A
:102750000F92CDB7DEB78A836B8381E089838A814C
:102760008E518A839091C9018A81891710F58B81D6
:10277000813019F08B818823C9F48A81882F90E0F9
:10278000880F991FFC01E653FE4F20818A81882F14
:1027900090E0880F991FFC01E553FE4F9081822F36
:1027A000692F4B810E94310B898305C082E08983A8
:1027B00002C082E0898389810F900F900F90CF91A2
:1027C000DF910895DF93CF93CDB7DEB7AB970FB608
:1027D000F894DEBF0FBECDBF81E08BA780E090E014
:1027E000A0EFB1E48FA398A7A9A7BAA76FA178A576
:1027F00089A59AA520E030E04AE755E40E941F022F
:10280000DC01CB018BA39CA3ADA3BEA36BA17CA1D8
:102810008DA19EA120E030E040E85FE30E947903B3
:1028200088232CF481E090E09AA389A33FC06BA198
:102830007CA18DA19EA120E03FEF4FE757E40E94CD
:10284000190318164CF56FA178A589A59AA520E063
:1028500030E040E251E40E941F02DC01CB01BC01E8
:10286000CD010E944900DC01CB019AA389A30FC0CE
:1028700080E991E098A38F8F8F8D98A10197F1F750
:1028800098A38F8F89A19AA101979AA389A389A15F
:102890009AA1009769F714C06BA17CA18DA19EA19C
:1028A0000E944900DC01CB019AA389A389A19AA1C6
:1028B0009E8F8D8F8D8D9E8D0197F1F79E8F8D8FC1
:1028C00081E061E041E00E94450A81E062E041E090
:1028D0000E94450A81E063E041E00E94450A80E0F1
:1028E00067E041E00E94450A80E066E041E00E9426
:1028F000450A80E065E041E00E94450A80E064E02E
:1029000041E00E94450A80E067E040E00E94310B10
:1029100080E066E040E00E94310B80E065E041E04D
:102920000E94310B80E064E040E00E94310B81E0C6
:1029300063E041E00E94310B80E090E0A0E8BFE35B
:10294000898F9A8FAB8FBC8F698D7A8D8B8D9C8D83
:1029500020E030E04AE755E40E941F02DC01CB0191
:102960008D8B9E8BAF8BB88F6D897E898F89988D6B
:1029700020E030E040E85FE30E94790388232CF4F4
:1029800081E090E09C8B8B8B3FC06D897E898F8925
:10299000988D20E03FEF4FE757E40E941903181687
:1029A0004CF5698D7A8D8B8D9C8D20E030E040E276
:1029B00051E40E941F02DC01CB01BC01CD010E9449
:1029C0004900DC01CB019C8B8B8B0FC080E991E02F
:1029D0009A8B898B89899A890197F1F79A8B898BD0
:1029E0008B899C8901979C8B8B8B8B899C89009709
:1029F00069F714C06D897E898F89988D0E9449007E
:102A0000DC01CB019C8B8B8B8B899C89988B8F876E
:102A10008F8598890197F1F7988B8F8781E063E024
:102A200040E00E94310B80E090E0A0E8B0E48B87AA
:102A30009C87AD87BE876B857C858D859E8520E0D4
:102A400030E04AE755E40E941F02DC01CB018F838E
:102A50009887A987BA876F81788589859A8520E0CC
:102A600030E040E85FE30E94790388232CF481E0A2
:102A700090E09E838D833FC06F81788589859A859C
:102A800020E03FEF4FE757E40E94190318164CF57A
:102A90006B857C858D859E8520E030E040E251E4A9
:102AA0000E941F02DC01CB01BC01CD010E94490044
:102AB000DC01CB019E838D830FC080E991E09C8374
:102AC0008B838B819C810197F1F79C838B838D8114
:102AD0009E8101979E838D838D819E81009769F7EA
:102AE00014C06F81788589859A850E944900DC0130
:102AF000CB019E838D838D819E819A838983898179
:102B00009A810197F1F79A83898381E061E040E03F
:102B10000E94310B88E20E943C1681E061E040E0B7
:102B20000E94310B88E00E943C1681E061E040E0A9
:102B30000E94310B81E00E943C1681E061E040E0A0
:102B40000E94310B86E00E943C161BA68BA5AB961B
:102B50000FB6F894DEBF0FBECDBFCF91DF910895C1
:102B6000DF93CF9300D0CDB7DEB78A8381E089832E
:102B700081E061E041E00E94310B89838A810E94FB
:102B80003C1689810F900F90CF91DF910895DF93CC
:102B9000CF9300D0CDB7DEB78A8381E0898381E00F
:102BA00061E040E00E94310B89838A810E943C16DB
:102BB00089810F900F90CF91DF910895DF93CF938C
:102BC00000D00F92CDB7DEB79B838A8381E08983E3
:102BD00011C081E061E041E00E94310B8983EA810C
:102BE000FB8120818A819B8101969B838A83822F2E
:102BF0000E943C16EA81FB818081882351F78981FC
:102C00000F900F900F90CF91DF910895DF93CF93A6
:102C100000D00F92CDB7DEB78A836B8381E08983C2
:102C20008A81882311F18A818330F8F48B8188238B
:102C3000E1F08B818131C8F481E061E040E00E94E5
:102C4000310B89838A81882F90E001960024969524
:102C500087950794969587950794982F802D982FA0
:102C60008B81890F81500E943C1689810F900F90B3
:102C70000F90CF91DF910895DF93CF93CDB7DEB75B
:102C8000E9970FB6F894DEBF0FBECDBF89AF81E0E4
:102C900062E040E00E94310B81E063E040E00E948E
:102CA000310B89AD982F991F9927991F80E067E014
:102CB000492F0E94310B89AD829586958695837048
:102CC000982F917080E066E0492F0E94310B89AD0A
:102CD000829586958770982F917080E065E0492FE6
:102CE0000E94310B89AD82958F70982F917080E092
:102CF00064E0492F0E94310B81E063E041E00E94D3
:102D0000310B80E090E0A0E8BFE38DAB9EABAFABB2
:102D1000B8AF6DA97EA98FA998AD20E030E04AE751
:102D200055E40E941F02DC01CB0189AB9AABABAB2F
:102D3000BCAB69A97AA98BA99CA920E030E040E846
:102D40005FE30E94790388232CF481E090E098AB44
:102D50008FA73FC069A97AA98BA99CA920E03FEF62
:102D60004FE757E40E94190318164CF56DA97EA988
:102D70008FA998AD20E030E040E251E40E941F02AC
:102D8000DC01CB01BC01CD010E944900DC01CB017B
:102D900098AB8FA70FC080E991E09EA78DA78DA566
:102DA0009EA50197F1F79EA78DA78FA598A90197DA
:102DB00098AB8FA78FA598A9009769F714C069A948
:102DC0007AA98BA99CA90E944900DC01CB0198AB90
:102DD0008FA78FA598A99CA78BA78BA59CA50197CA
:102DE000F1F79CA78BA781E063E040E00E94310BE4
:102DF00080E090E0A0E8B0E48FA398A7A9A7BAA7C5
:102E00006FA178A589A59AA520E030E04AE755E4AE
:102E10000E941F02DC01CB018BA39CA3ADA3BEA328
:102E20006BA17CA18DA19EA120E030E040E85FE392
:102E30000E94790388232CF481E090E09AA389A36F
:102E40003FC06BA17CA18DA19EA120E03FEF4FE789
:102E500057E40E94190318164CF56FA178A589A5AF
:102E60009AA520E030E040E251E40E941F02DC011C
:102E7000CB01BC01CD010E944900DC01CB019AA32A
:102E800089A30FC080E991E098A38F8F8F8D98A1BF
:102E90000197F1F798A38F8F89A19AA101979AA31F
:102EA00089A389A19AA1009769F714C06BA17CA19D
:102EB0008DA19EA10E944900DC01CB019AA389A3A8
:102EC00089A19AA19E8F8D8F8D8D9E8D0197F1F78F
:102ED0009E8F8D8F89AD869586958695982F91705A
:102EE00080E067E0492F0E94310B89AD8695869579
:102EF000982F917080E066E0492F0E94310B89ADD8
:102F00008695982F917080E065E0492F0E94310BE3
:102F100089AD982F917080E064E0492F0E94310BB9
:102F200081E063E041E00E94310B80E090E0A0E8A6
:102F3000BFE3898F9A8FAB8FBC8F698D7A8D8B8D14
:102F40009C8D20E030E04AE755E40E941F02DC013E
:102F5000CB018D8B9E8BAF8BB88F6D897E898F89CE
:102F6000988D20E030E040E85FE30E9479038823F9
:102F70002CF481E090E09C8B8B8B3FC06D897E8927
:102F80008F89988D20E03FEF4FE757E40E941903A7
:102F900018164CF5698D7A8D8B8D9C8D20E030E074
:102FA00040E251E40E941F02DC01CB01BC01CD01D3
:102FB0000E944900DC01CB019C8B8B8B0FC080E908
:102FC00091E09A8B898B89899A890197F1F79A8B7D
:102FD000898B8B899C8901979C8B8B8B8B899C8996
:102FE000009769F714C06D897E898F89988D0E943A
:102FF0004900DC01CB019C8B8B8B8B899C89988B46
:103000008F878F8598890197F1F7988B8F8781E05B
:1030100063E040E00E94310B80E090E0A0E8B0E483
:103020008B879C87AD87BE876B857C858D859E85CC
:1030300020E030E04AE755E40E941F02DC01CB01AA
:103040008F839887A987BA876F81788589859A85C4
:1030500020E030E040E85FE30E94790388232CF40D
:1030600081E090E09E838D833FC06F817885898564
:103070009A8520E03FEF4FE757E40E9419031816A6
:103080004CF56B857C858D859E8520E030E040E2A7
:1030900051E40E941F02DC01CB01BC01CD010E9462
:1030A0004900DC01CB019E838D830FC080E991E054
:1030B0009C838B838B819C810197F1F79C838B830D
:1030C0008D819E8101979E838D838D819E81009746
:1030D00069F714C06F81788589859A850E944900B7
:1030E000DC01CB019E838D838D819E819A838983B0
:1030F00089819A810197F1F79A83898380E0E99623
:103100000FB6F894DEBF0FBECDBFCF91DF9108950B
:10311000DF93CF93CDB7DEB72D970FB6F894DEBF10
:103120000FBECDBF69877A878B879C8781E08E83AE
:1031300081E08D8381E061E040E00E94310B8F836C
:1031400086E00E943C1688878F81882309F0EBC0B7
:103150008885882309F0E7C089859A85AB85BC8579
:10316000BB23CCF481E061E041E00E94310B8F830E
:103170008DE20E943C16888789859A85AB85BC853F
:10318000B095A095909581959F4FAF4FBF4F898780
:103190009A87AB87BC878F81882309F0C4C0888554
:1031A000882309F0C0C089859A85AB85BC85898351
:1031B0009A83AB83BC831CC081E061E040E00E9445
:1031C000310B8F8384E10E943C16888789819A8124
:1031D000AB81BC812AE030E040E050E0BC01CD0191
:1031E0000E94EC27DA01C90189839A83AB83BC83EF
:1031F00089819A81AB81BC818B309105A105B10594
:1032000030F08F81882319F488858823A9F28F8173
:10321000882309F088C08885882309F084C081E06C
:1032200061E040E00E94310B8F8384E00E943C16F5
:1032300088878F81882309F076C08885882309F0E4
:1032400072C02DC08D818F5F8D8381E061E041E090
:103250000E94310B8F8389859A85AB85BC852AE0D6
:1032600030E040E050E0BC01CD010E940E28DC01BE
:10327000CB01805D0E943C16888789859A85AB8545
:10328000BC852AE030E040E050E0BC01CD010E9466
:103290000E28DA01C90189879A87AB87BC8789859F
:1032A0009A85AB85BC850097A105B10531F08F816A
:1032B000882319F48885882329F28F81882399F53A
:1032C0008885882381F50AC081E061E040E00E94A2
:1032D000310B8F8384E10E943C1688878D818D8716
:1032E0008D85882311F081E08D879D858D818150AA
:1032F0008D8381E08927882331F48F81882319F415
:103300008885882309F38F81882369F48885882339
:1033100051F481E061E040E00E94310B8F8386E050
:103320000E943C1688878F81882321F48885882312
:1033300009F41E821E828E812D960FB6F894DEBF90
:103340000FBECDBFCF91DF910895DF93CF93CDB75F
:10335000DEB766970FB6F894DEBF0FBECDBF698BA0
:103360007A8B8B8B9C8B81E08E871D8619861A86C3
:103370001B861C861D821E821F82188680E090E0BC
:10338000A0E0B0E089839A83AB83BC8381E061E0F5
:1033900040E00E94310B8F8786E00E943C16888BAC
:1033A0008F85882309F08FC18889882309F08BC114
:1033B00069897A898B899C8920E030E040E050E07F
:1033C0000E94790388239CF481E061E041E00E943F
:1033D000310B8F878DE20E943C16888B89899A89F0
:1033E000AB89BC89B058898B9A8BAB8BBC8B6989B4
:1033F0007A898B899C890E944900DC01CB018D83ED
:103400009E83AF83B8878D819E81AF81B885898780
:103410009A87AB87BC8769857A858B859C850E9456
:10342000FD039B01AC0169897A898B899C890E9483
:10343000C101DC01CB0189839A83AB83BC838F8577
:10344000882309F040C18889882309F03CC11CC049
:1034500081E061E040E00E94310B8F8784E10E94AF
:103460003C168F878D819E81AF81B8852AE030E040
:1034700040E050E0BC01CD010E94EC27DA01C90117
:103480008D839E83AF83B8878D819E81AF81B88500
:103490008B309105A105B10530F08F85882319F493
:1034A00088898823A9F28F85882309F00CC188892F
:1034B000882309F008C181E061E040E00E94310BFF
:1034C0008F8784E00E943C16888B8F85882309F0C3
:1034D000FAC08889882309F0F6C08D858F5F8D87B3
:1034E00081E061E041E00E94310B89859A85AB85DE
:1034F000BC852AE030E040E050E0BC01CD010E94F4
:10350000EC27DC01CB01805D0E943C1689859A8501
:10351000AB85BC852AE030E040E050E0BC01CD0145
:103520000E94EC27DA01C90189879A87AB87BC879B
:1035300089859A85AB85BC850097A105B10531F0D9
:103540008F85882319F48889882339F28F85882309
:1035500009F0B9C08889882309F0B5C081E061E02D
:1035600040E00E94310B8F8784E10E943C16888BDB
:103570008D858E8B9E89992311F081E08E8B9E899B
:103580008D8581508D8781E08927882331F48F854F
:10359000882319F48889882309F38F85882309F003
:1035A00092C08889882309F08EC081E061E040E004
:1035B0000E94310B8F8786E00E943C16888B8F8596
:1035C000882309F080C08889882309F07CC069813C
:1035D0007A818B819C8120E030E040E050E00E94C5
:1035E0001903181654F481E061E041E00E94310BA8
:1035F0008F878EE20E943C16888B8F85882309F086
:1036000062C08889882309F05EC01D863EC08D8512
:103610008F5F8D8769817A818B819C8120E030E08A
:1036200040E251E40E941F02DC01CB0189839A83AE
:10363000AB83BC8369817A818B819C810E94490024
:10364000DC01CB0189879A87AB87BC8769857A853E
:103650008B859C850E94FD039B01AC0169817A8169
:103660008B819C810E94C101DC01CB0189839A83FB
:10367000AB83BC8381E061E041E00E94310B8F8726
:103680008985805D0E943C16888B1D8A69817A81BC
:103690008B819C8120E030E040E050E00E941903E3
:1036A000181614F491E09D8B81E09D898927882369
:1036B00051F48D85863038F48F85882321F48889EC
:1036C000882309F4A4CF8F85882321F4888988234F
:1036D00009F41E868E8566960FB6F894DEBF0FBE7F
:1036E000CDBFCF91DF910895DF93CF93CDB7DEB7F4
:1036F0002B970FB6F894DEBF0FBECDBF9E838D8390
:103700006F834887298781E08A838885853608F416
:1037100052C088858D3608F04EC08885282F30E04D
:103720008F81882F90E0820F931F01978D3691052E
:103730000CF041C081E061E040E00E94310B8B83DE
:103740008885882F90E08D559040880F991F880FAD
:10375000991F880F991F0E943C168C83198215C0EF
:1037600081E061E041E00E94310B8B838981282F49
:1037700030E08D819E81FC01E20FF31F80810E9469
:103780003C168C8389818F5F89838981282F30E063
:103790008F81882F90E0880F991F880F991F880FBD
:1037A000991F281739074CF48B81882331F48C81B9
:1037B0008823B1F202C082E08A838A81823071F16B
:1037C0008B81882359F58C81882341F589858E3634
:1037D00019F089858E3601F581E061E040E00E94B4
:1037E000310B8B838985282F30E03B872A878A8598
:1037F0009B858E36910531F02A853B852F36310524
:1038000031F00CC086E00E943C168C8307C084E037
:103810000E943C168C8302C082E08A838A818230B7
:1038200039F08B81882321F48C81882309F41A8252
:103830008A812B960FB6F894DEBF0FBECDBFCF9115
:10384000DF910895DF93CF9300D000D000D0CDB7A3
:10385000DEB78C8381E089838C818E3619F08C8170
:103860008E3601F581E061E040E00E94310B8A83F1
:103870008C81282F30E03E832D838D819E818E3672
:10388000910531F02D813E812F36310531F00CC08C
:1038900086E00E943C168B8307C084E00E943C16A1
:1038A0008B8302C082E089838981823039F08A81EA
:1038B000882321F48B81882309F419828981269633
:1038C0000FB6F894DEBF0FBECDBFCF91DF91089544
:1038D000DF93CF9300D000D00F92CDB7DEB781E059
:1038E0008B831A8219829091D1018091D00189171E
:1038F00008F4AFC09091D2018091D001891708F4EB
:10390000A8C054C08A81282F30E0C901880F991FB0
:10391000820F931FFC01E551FE4F40818A81282FC1
:1039200030E0C901880F991F820F931FFC01E451F9
:10393000FE4F9081842F692F40E00E94450A8C83BE
:103940008A81282F30E0C901880F991F820F931FA9
:10395000FC01E551FE4F50818A81282F30E0C901DA
:10396000880F991F820F931FFC01E451FE4F408185
:103970008A81282F30E0C901880F991F820F931F79
:10398000FC01E351FE4F9081852F642F492F0E9447
:10399000310B8D838C81882319F48D81882319F054
:1039A00081E0898309C08A818F5F8A839091D101E8
:1039B0008A81891708F4A6CF8981882309F044C039
:1039C0001A823CC08A81882F90E0880F991FFC01E1
:1039D000ED51FE4F20818A81882F90E0880F991F3A
:1039E000FC01EC51FE4F9081822F692F41E00E9433
:1039F000450A8C838A81882F90E0880F991FFC01EB
:103A0000ED51FE4F20818A81882F90E0880F991F09
:103A1000FC01EC51FE4F9081822F692F41E00E9402
:103A2000310B8D838C81882319F48D81882319F0C3
:103A300081E0898309C08A818F5F8A839091D20156
:103A40008A81891708F4BECF8981882321F41B82DB
:103A500002C082E08B838B810F900F900F900F90AC
:103A60000F90CF91DF910895DF93CF93CDB7DEB75D
:103A700065970FB6F894DEBF0FBECDBF9D8B8C8BC4
:103A800081E08A8B8C899D89009709F461C181E06E
:103A90008B8B198AEC89FD898FEF8083188A51C13D
:103AA0008889882F90E0880F991FFC01ED51FE4F07
:103AB00020818889882F90E0880F991FFC01EC51A4
:103AC000FE4F9081822F692F40E00E94310B8A8B3C
:103AD0001F860DC18F85282F30E0C901880F991FDF
:103AE000820F931FFC01E551FE4F40818F85282FE7
:103AF00030E0C901880F991F820F931FFC01E45128
:103B0000FE4F90819E012D5E3F4F842F692FA901AA
:103B10000E94AE0C8A8B8B89882309F0E5C08A89C4
:103B2000882309F0E1C080E090E0A0E4B0E48B8756
:103B30009C87AD87BE876B857C858D859E8520E0C3
:103B400030E04AE755E40E941F02DC01CB018F837D
:103B50009887A987BA876F81788589859A8520E0BB
:103B600030E040E85FE30E94790388232CF481E091
:103B700090E09E838D833FC06F81788589859A858B
:103B800020E03FEF4FE757E40E94190318164CF569
:103B90006B857C858D859E8520E030E040E251E498
:103BA0000E941F02DC01CB01BC01CD010E94490033
:103BB000DC01CB019E838D830FC080E991E09C8363
:103BC0008B838B819C810197F1F79C838B838D8103
:103BD0009E8101979E838D838D819E81009769F7D9
:103BE00014C06F81788589859A850E944900DC011F
:103BF000CB019E838D838D819E819A838983898168
:103C00009A810197F1F79A8389838F85282F30E075
:103C1000C901880F991F820F931FFC01E551FE4FC8
:103C200040818F85282F30E0C901880F991F820FAE
:103C3000931FFC01E451FE4F90819E012D5E3F4F8A
:103C4000842F692FA9010E94AE0C8A8B8A89882350
:103C500009F04AC08B89882309F046C081E0898B2E
:103C60008F85282F30E08091D201882F90E0A90124
:103C7000489F9001499F300D589F300D112488892D
:103C8000882F90E0820F931FFC01ED52FE4F808140
:103C9000EC89FD89808321C08F85282F30E0C90100
:103CA000880F991F820F931FFC01E551FE4F408141
:103CB0008F85282F30E0C901880F991F820F931F2D
:103CC000FC01E451FE4F90819E012D5E3F4F842FF9
:103CD000692FA9010E94AE0C8A8B8B89882381F4FD
:103CE0008A898823C9F20CC08F858F5F8F878A8964
:103CF000882331F49091D1018F85891708F4EACE99
:103D00008989813039F18A89882321F58889882F2A
:103D100090E0880F991FFC01ED51FE4F20818889AA
:103D2000882F90E0880F991FFC01EC51FE4F908185
:103D3000822F692F41E00E94310B8A8B88898F5F27
:103D4000888B9091D2018889891708F4A9CE02C086
:103D500083E08A8B8A8965960FB6F894DEBF0FBE22
:103D6000CDBFCF91DF910895DF93CF9300D0CDB732
:103D7000DEB781E08A8319829091D1018091D001D0
:103D8000891708F45AC09091D2018091D001891707
:103D900008F453C024C08981282F30E0C901880F5E
:103DA000991F820F931FFC01E551FE4F40818981CD
:103DB000282F30E0C901880F991F820F931FFC0143
:103DC000E451FE4F9081842F692F40E00E94310B17
:103DD0008A838A81882341F489818F5F89839091C6
:103DE000D10189818917B8F28A81882341F5198226
:103DF0001EC08981882F90E0880F991FFC01ED512A
:103E0000FE4F20818981882F90E0880F991FFC0147
:103E1000EC51FE4F9081822F692F40E00E94310BC0
:103E20008A838A81882359F489818F5F898390915D
:103E3000D20189818917E8F202C082E08A838A81EF
:103E40000F900F90CF91DF910895DF93CF9300D023
:103E5000CDB7DEB781E08A8319829091D10180913C
:103E6000D001891708F466C09091D2018091D001E9
:103E7000891708F45FC030C08981282F30E0C9015C
:103E8000880F991F820F931FFC01E551FE4F50814F
:103E90008981282F30E0C901880F991F820F931F55
:103EA000FC01E451FE4F40818981282F30E0C90197
:103EB000880F991F820F931FFC01E351FE4F9081E1
:103EC000852F642F492F0E94310B8A838A81882392
:103ED00041F489818F5F89839091D101898189170C
:103EE00058F28A81882341F519821EC08981882F62
:103EF00090E0880F991FFC01ED51FE4F20818981D0
:103F0000882F90E0880F991FFC01EC51FE4F9081A3
:103F1000822F692F41E00E94310B8A838A81882396
:103F200059F489818F5F89839091D20189818917A2
:103F3000E8F202C082E08A838A810F900F90CF91CD
:103F4000DF910895DF93CF9300D000D000D0CDB79C
:103F5000DEB789E190E09C838B8381E08A8381E0F6
:103F600089830E943420882309F073C00E949C2119
:103F7000882309F06EC08091F901882309F061C09F
:103F800080910802882329F4CE0105960E94E4213D
:103F900019828091FB01882319F40E94C52319829C
:103FA0008D819E810E94F0260E9440272D813E81B6
:103FB0008B819C812817390741F49091F7018A8100
:103FC000891719F489818823A9F581E00E94C71512
:103FD00081E063E00E94061680E690E00E94DE1514
:103FE00082E063E00E9406168D819E81CC01A0E0F4
:103FF000B0E0BC01CD010E94881882E06CE00E9414
:1040000006168091F701882329F48CE690E00E943F
:10401000DE1504C08FE690E00E94DE158D819E8142
:104020009C838B838091F7018A838981882311F493
:1040300081E089830E942A23CE0105960E9467278A
:104040009ACF8091FC01882309F095CF0E948422A9
:1040500092CF80E090E026960FB6F894DEBF0FBEB8
:10406000CDBFCF91DF910895DF93CF93CDB7DEB76A
:104070000E943A0A0E9486068DE30E943B080E9435
:104080004C0D0E9474060E94E2130E94681C0E945C
:104090000D100E944E130E94081380E0CF91DF9113
:1040A0000895DF93CF93CDB7DEB786E092E00E940C
:1040B000870E882311F41092FA01CF91DF910895B1
:1040C000DF93CF93CDB7DEB76D970FB6F894DEBF11
:1040D0000FBECDBF8FE08D8F9E01235E3F4F8BECD7
:1040E000B9010E947C10882309F01DC18091F9015B
:1040F000813009F089C08D8D813009F085C080E064
:1041000090E0A0E2B1E4898F9A8FAB8FBC8F698D6C
:104110007A8D8B8D9C8D20E030E04AE755E40E943B
:104120001F02DC01CB018D8B9E8BAF8BB88F6D890D
:104130007E898F89988D20E030E040E85FE30E941F
:10414000790388232CF481E090E09C8B8B8B3FC01B
:104150006D897E898F89988D20E03FEF4FE757E486
:104160000E94190318164CF5698D7A8D8B8D9C8DE4
:1041700020E030E040E251E40E941F02DC01CB016C
:10418000BC01CD010E944900DC01CB019C8B8B8BD3
:104190000FC080E991E09A8B898B89899A89019770
:1041A000F1F79A8B898B8B899C8901979C8B8B8BE0
:1041B0008B899C89009769F714C06D897E898F89E6
:1041C000988D0E944900DC01CB019C8B8B8B8B89E5
:1041D0009C89988B8F878F8598890197F1F7988BA9
:1041E0008F879E01235E3F4F8BECB9010E947C10AC
:1041F000882309F098C08D8D813009F094C0109209
:10420000F901109208028FC08091F901882309F00A
:104210008AC08D8D813009F086C080E090E0AAEFE1
:10422000B3E48B879C87AD87BE876B857C858D8546
:104230009E8520E030E04AE755E40E941F02DC0141
:10424000CB018F839887A987BA876F817885898505
:104250009A8520E030E040E85FE30E9479038823FC
:104260002CF481E090E09E838D833FC06F81788540
:1042700089859A8520E03FEF4FE757E40E941903B4
:1042800018164CF56B857C858D859E8520E030E089
:1042900040E251E40E941F02DC01CB01BC01CD01D0
:1042A0000E944900DC01CB019E838D830FC080E911
:1042B00091E09C838B838B819C810197F1F79C8398
:1042C0008B838D819E8101979E838D838D819E81BD
:1042D000009769F714C06F81788589859A850E9457
:1042E0004900DC01CB019E838D838D819E819A8361
:1042F000898389819A810197F1F79A8389839E0145
:10430000235E3F4F8BECB9010E947C10882359F447
:104310008D8D813031F481E08093F9011092FC01A0
:1043200002C01092FB016D960FB6F894DEBF0FBE6F
:10433000CDBFCF91DF910895DF93CF93CDB7DEB797
:1043400029970FB6F894DEBF0FBECDBF81E08A83F8
:1043500019820E94AD0F8B830E94780E8C8381E5B9
:1043600090E20E947F0F8D830E94BC0F8E830E947B
:104370009E0F8F8380E690E26DE30E94100A88878B
:104380008CE00E94C715898703C089818F5F89836C
:104390008981873058F48981282F30E0CE01039637
:1043A000FC01E20FF31F8081882379F38981873034
:1043B00009F41A828A8129960FB6F894DEBF0FBEDF
:1043C000CDBFCF91DF910895DF93CF93CDB7DEB707
:1043D00060970FB6F894DEBF0FBECDBF988B8F8766
:1043E0000E949E0F81E00E94C71581E066E00E9456
:1043F000061683E790E00E94DE158CE00E94C71548
:104400008F8598890E9467271092F70180E090E0DD
:10441000AAEFB4E48B879C87AD87BE876B857C85CC
:104420008D859E8520E030E04AE755E40E941F021A
:10443000DC01CB018F839887A987BA876F81788544
:1044400089859A8520E030E040E85FE30E947903A7
:1044500088232CF481E090E09E838D833FC06F81A0
:10446000788589859A8520E03FEF4FE757E40E94E1
:10447000190318164CF56B857C858D859E8520E08B
:1044800030E040E251E40E941F02DC01CB01BC019C
:10449000CD010E944900DC01CB019E838D830FC0BA
:1044A00080E991E09C838B838B819C810197F1F75C
:1044B0009C838B838D819E8101979E838D838D81CB
:1044C0009E81009769F714C06F81788589859A85E8
:1044D0000E944900DC01CB019E838D838D819E81EA
:1044E0009A83898389819A810197F1F79A838983D5
:1044F00081E08093080260960FB6F894DEBF0FBE8D
:10450000CDBFCF91DF910895DF93CF93CDB7DEB7C5
:104510002E970FB6F894DEBF0FBECDBF81E00E948C
:10452000C71582E063E00E94061689E790E00E94CA
:10453000DE158EE160E00E94A5138FE160E00E942D
:10454000A51380E260E00E94A5130E94AD0F80E0F9
:1045500090E4ACE9B5E48B879C87AD87BE876B851B
:104560007C858D859E8520E030E04AE755E40E94F9
:104570001F02DC01CB018F839887A987BA876F81DF
:10458000788589859A8520E030E040E85FE30E94E5
:10459000790388232CF481E090E09E838D833FC0D3
:1045A0006F81788589859A8520E03FEF4FE757E452
:1045B0000E94190318164CF56B857C858D859E85A8
:1045C00020E030E040E251E40E941F02DC01CB0118
:1045D000BC01CD010E944900DC01CB019E838D838B
:1045E0000FC080E991E09C838B838B819C81019734
:1045F000F1F79C838B838D819E8101979E838D83B0
:104600008D819E81009769F714C06F8178858985B7
:104610009A850E944900DC01CB019E838D838D81A8
:104620009E819A83898389819A810197F1F79A8380
:10463000898388E00E94C71581E08093FC01109275
:1046400008022E960FB6F894DEBF0FBECDBFCF91F5
:10465000DF910895DF93CF93CDB7DEB760970FB6A4
:10466000F894DEBF0FBECDBF188A1F867FC080E0E2
:1046700090E0A0E2B1E48B879C87AD87BE876B8515
:104680007C858D859E8520E030E04AE755E40E94D8
:104690001F02DC01CB018F839887A987BA876F81BE
:1046A000788589859A8520E030E040E85FE30E94C4
:1046B000790388232CF481E090E09E838D833FC0B2
:1046C0006F81788589859A8520E03FEF4FE757E431
:1046D0000E94190318164CF56B857C858D859E8587
:1046E00020E030E040E251E40E941F02DC01CB01F7
:1046F000BC01CD010E944900DC01CB019E838D836A
:104700000FC080E991E09C838B838B819C81019712
:10471000F1F79C838B838D819E8101979E838D838E
:104720008D819E81009769F714C06F817885898596
:104730009A850E944900DC01CB019E838D838D8187
:104740009E819A83898389819A810197F1F79A835F
:1047500089838091F901813079F08091FB01882370
:1047600059F08F8598890196988B8F878F859889C6
:104770008431910508F47BCF60960FB6F894DEBFC4
:104780000FBECDBFCF91DF9108950F931F93DF939D
:10479000CF93CDB7DEB7CA54D0400FB6F894DEBF82
:1047A0000FBECDBFFE01E85BFF4F84E18083FE01B9
:1047B000E95BFF4F8091FD01808381E00E94C71576
:1047C00081E065E00E94061685E890E00E94DE1513
:1047D00082E068E00E9406168091FD01882F90E03B
:1047E000A0E0B0E0BC01CD010E948818FE01ED5BA5
:1047F000FF4F80E090E0AAEFB3E480839183A2832F
:10480000B3838E01015C1F4FFE01ED5BFF4F6081A2
:1048100071818281938120E030E04AE755E40E9473
:104820001F02DC01CB01F80180839183A283B38353
:10483000FE01FF96608171818281938120E030E0EA
:1048400040E85FE30E94790388232CF481E090E044
:104850009EAF8DAF46C0FE01FF966081718182815F
:10486000938120E03FEF4FE757E40E9419031816A9
:1048700064F5FE01ED5BFF4F608171818281938160
:1048800020E030E040E251E40E941F02DC01CB0155
:10489000BC01CD010E944900DC01CB019EAF8DAF70
:1048A0000FC080E991E09CAF8BAF8BAD9CAD0197C1
:1048B000F1F79CAF8BAF8DAD9EAD01979EAF8DAFE5
:1048C0008DAD9EAD009769F775C2FE01FF966081C0
:1048D0007181828193810E944900DC01CB019EAFEE
:1048E0008DAF8DAD9EAD9AAF89AF89AD9AAD019771
:1048F000F1F79AAF89AF5EC29E01275B3F4F8AEC0A
:10490000B9010E947C10882309F03FC19E01265BFB
:104910003F4F89ECB9010E947C10882309F035C112
:10492000FE01E75BFF4F8081813009F095C0FE01F9
:10493000E65BFF4F8081813009F48EC080E090E01B
:10494000A0E2B1E48DAB9EABAFABB8AF6DA97EA9D1
:104950008FA998AD20E030E04AE755E40E941F029D
:10496000DC01CB0189AB9AABABABBCAB69A97AA933
:104970008BA99CA920E030E040E85FE30E94790326
:1049800088232CF481E090E098AB8FA73FC069A901
:104990007AA98BA99CA920E03FEF4FE757E40E943A
:1049A000190318164CF56DA97EA98FA998AD20E0C2
:1049B00030E040E251E40E941F02DC01CB01BC0167
:1049C000CD010E944900DC01CB0198AB8FA70FC03D
:1049D00080E991E09EA78DA78DA59EA50197F1F78F
:1049E0009EA78DA78FA598A9019798AB8FA78FA594
:1049F00098A9009769F714C069A97AA98BA99CA9FD
:104A00000E944900DC01CB0198AB8FA78FA598A924
:104A10009CA78BA78BA59CA50197F1F79CA78BA7BB
:104A20009E01275B3F4F8AECB9010E947C108823CE
:104A300009F0ABC0FE01E75BFF4F8081813009F0D8
:104A4000A4C08091FD018F5F8093FD01FE01E85BB2
:104A5000FF4F84E1808399C0FE01E65BFF4F8081B8
:104A6000813009F092C0FE01E75BFF4F8081813009
:104A700009F48BC080E090E0A0E2B1E48FA398A796
:104A8000A9A7BAA76FA178A589A59AA520E030E0CB
:104A90004AE755E40E941F02DC01CB018BA39CA3D3
:104AA000ADA3BEA36BA17CA18DA19EA120E030E0AF
:104AB00040E85FE30E94790388232CF481E090E0D2
:104AC0009AA389A33FC06BA17CA18DA19EA120E0E8
:104AD0003FEF4FE757E40E94190318164CF56FA1FA
:104AE00078A589A59AA520E030E040E251E40E9433
:104AF0001F02DC01CB01BC01CD010E944900DC0199
:104B0000CB019AA389A30FC080E991E098A38F8F6E
:104B10008F8D98A10197F1F798A38F8F89A19AA102
:104B200001979AA389A389A19AA1009769F714C054
:104B30006BA17CA18DA19EA10E944900DC01CB014B
:104B40009AA389A389A19AA19E8F8D8F8D8D9E8D09
:104B50000197F1F79E8F8D8F9E01265B3F4F89EC69
:104B6000B9010E947C10882381F4FE01E65BFF4FAF
:104B70008081813051F48091FD0181508093FD014D
:104B8000FE01E85BFF4F84E180838091FD01FE011F
:104B9000E95BFF4F9081891701F181E00E94C71501
:104BA00081E065E00E94061685E890E00E94DE152F
:104BB00082E068E00E9406168091FD01882F90E057
:104BC000A0E0B0E0BC01CD010E948818FE01E95BC5
:104BD000FF4F8091FD01808372C080E090E0A8ECDF
:104BE000B2E4898F9A8FAB8FBC8F698D7A8D8B8D54
:104BF0009C8D20E030E04AE755E40E941F02DC0172
:104C0000CB018D8B9E8BAF8BB88F6D897E898F8901
:104C1000988D20E030E040E85FE30E94790388232C
:104C20002CF481E090E09C8B8B8B3FC06D897E895A
:104C30008F89988D20E03FEF4FE757E40E941903DA
:104C400018164CF5698D7A8D8B8D9C8D20E030E0A7
:104C500040E251E40E941F02DC01CB01BC01CD0106
:104C60000E944900DC01CB019C8B8B8B0FC080E93B
:104C700091E09A8B898B89899A890197F1F79A8BB0
:104C8000898B8B899C8901979C8B8B8B8B899C89C9
:104C9000009769F714C06D897E898F89988D0E946D
:104CA0004900DC01CB019C8B8B8B8B899C89988B79
:104CB0008F878F8598890197F1F7988B8F8780E090
:104CC00090E0A0E2B1E48B879C87AD87BE876B85BF
:104CD0007C858D859E8520E030E04AE755E40E9482
:104CE0001F02DC01CB018F839887A987BA876F8168
:104CF000788589859A8520E030E040E85FE30E946E
:104D0000790388232CF481E090E09E838D833FC05B
:104D10006F81788589859A8520E03FEF4FE757E4DA
:104D20000E94190318164CF56B857C858D859E8530
:104D300020E030E040E251E40E941F02DC01CB01A0
:104D4000BC01CD010E944900DC01CB019E838D8313
:104D50000FC080E991E09C838B838B819C810197BC
:104D6000F1F79C838B838D819E8101979E838D8338
:104D70008D819E81009769F714C06F817885898540
:104D80009A850E944900DC01CB019E838D838D8131
:104D90009E819A83898389819A810197F1F79A8309
:104DA0008983DE01A85BBF4FFE01E85BFF4F808176
:104DB00081508C93FE01E85BFF4F8081882309F0CE
:104DC0009BCD81E08093FB01C65BDF4F0FB6F8946B
:104DD000DEBF0FBECDBFCF91DF911F910F91089520
:104DE000DF93CF9300D0CDB7DEB79A8389838091CC
:104DF000FD01882F90E002969C0189819A812817F5
:104E0000390780F482E08093F8018FE160E00E942E
:104E1000A51380E260E00E94A5138EE161E00E948C
:104E2000A51329C08091FD01882F90E002979C0175
:104E300089819A818217930778F41092F8018EE1A4
:104E400060E00E94A5138FE160E00E94A51380E25C
:104E500061E00E94A5130FC081E08093F8018EE10C
:104E600060E00E94A51380E260E00E94A5138FE13C
:104E700061E00E94A5130F900F90CF91DF910895EC
:104E8000DF93CF9300D0CDB7DEB78091F701282F05
:104E900030E03A83298389819A81009761F02981E2
:104EA0003A812130310571F48091F801823051F45A
:104EB0001092F70107C08091F801882319F481E06E
:104EC0008093F7010F900F90CF91DF910895DF93BA
:104ED000CF9300D000D00F92CDB7DEB79D838C83E7
:104EE0001B821A8219821DC00E94350E8091FA0120
:104EF0008130E1F3809106029091070224E130E0D5
:104F0000B9010E94C527CB019C018A819B81820F38
:104F1000931F9B838A8381E08093FA0189818F5F4D
:104F200089838981853000F38A819B81049625E0FD
:104F300030E0B9010E94C527CB019B838A838A8117
:104F40009B8121E230E0B9010E94C527CB019C0181
:104F50008A819B81821B930B9B838A838A819B819D
:104F60008230910520F482E090E09B838A83EC817B
:104F7000FD818A819B81918380830F900F900F9098
:104F80000F900F90CF91DF910895AA1BBB1B51E1A9
:104F900007C0AA1FBB1FA617B70710F0A61BB70BA9
:104FA000881F991F5A95A9F780959095BC01CD014E
:104FB000089597FB092E07260AD077FD04D0E5DF78
:104FC00006D000201AF4709561957F4F0895F6F78A
:104FD000909581959F4F0895A1E21A2EAA1BBB1BA5
:104FE000FD010DC0AA1FBB1FEE1FFF1FA217B307B5
:104FF000E407F50720F0A21BB30BE40BF50B661FCB
:10500000771F881F991F1A9469F76095709580958E
:1050100090959B01AC01BD01CF01089597FB092E2E
:1050200005260ED057FD04D0D7DF0AD0001C38F477
:1050300050954095309521953F4F4F4F5F4F0895C4
:10504000F6F790958095709561957F4F8F4F9F4FA4
:1050500008952F923F924F925F926F927F928F921C
:105060009F92AF92BF92CF92DF92EF92FF920F93F7
:105070001F93CF93DF93CDB7DEB7CA1BDB0B0FB601
:10508000F894DEBF0FBECDBF09942A8839884888BE
:105090005F846E847D848C849B84AA84B984C88454
:1050A000DF80EE80FD800C811B81AA81B981CE0F4B
:1050B000D11D0FB6F894DEBF0FBECDBFED01089530
:0450C000F894FFCF92
:1050C40054656D7065726174757265004F4E004F62
:1050D40046460048692E2E2E004279652E2E4279CE
:1050E4006521212100536574206D6F646500000003
:1050F4000000000000000001020203030303040493
:105104000404040404040505050505050505050551
:105114000505050505050606060606060606060631
:10512400060606060606060606060606060606061B
:105134000606060606060707070707070707070701
:1051440007070707070707070707070707070707EB
:1051540007070707070707070707070707070707DB
:1051640007070707070707070707070707070707CB
:1051740007070707070708080808080808080808B1
:10518400080808080808080808080808080808089B
:10519400080808080808080808080808080808088B
:1051A400080808080808080808080808080808087B
:1051B400080808080808080808080808080808086B
:1051C400080808080808080808080808080808085B
:1051D400080808080808080808080808080808084B
:1051E400080808080808080808080808080808083B
:1051F400080808080808033A3B3D3A3C3E3A3C3F5D
:10520400030100000306000302000204020004007C
:105214000500060007000301020101000400050067
:10522400060007000301020101030202020703034F
:105234000404043738392F343536783132332D436A
:10524400303D2B02030204020502060300010301A0
:0E525400010304010305010101010101011B19
:00000001FF
