:100000000C942A000C9447000C9447000C94470071
:100010000C9447000C9447000C9447000C94470044
:100020000C9447000C9447000C9447000C94470034
:100030000C9447000C9447000C9447000C94470024
:100040000C9447000C9447000C9447000C94470014
:100050000C94470011241FBECFE5D8E0DEBFCDBF12
:1000600012E0A0E6B0E0EEEAF7E302C005900D92E0
:10007000A831B107D9F712E0A8E1B2E001C01D92A2
:10008000AB31B107E1F70E94F1170C94D51B0C942A
:100090000000EF92FF920F931F937B018C0120E0F1
:1000A00030E040E05FE40E94490388238CF0C801FF
:1000B000B70120E030E040E05FE40E94C1010E940F
:1000C000A9039B01AC01205030404040504806C07D
:1000D000C801B7010E94A9039B01AC01B901CA0183
:1000E0001F910F91FF90EF900895A0E0B0E0EBE733
:1000F000F0E00C949E1BDC012B01FA019C919230E4
:1001000008F439C1EB018881823008F433C194309E
:1001100069F4843009F02FC111969C91119789815F
:10012000981709F428C1A2EBB0E025C1843009F486
:1001300021C18230A9F4923009F01DC19A01AD01AC
:1001400088E0EA010990AE01E90109929E0181501F
:10015000C1F7E201898111969C918923818308C1AD
:10016000923009F407C112962D903C901397EB0141
:100170008A819B811496AD90BD90CD90DC901797AD
:10018000EC80FD800E811F819101281B390BB90184
:1001900037FF04C066277727621B730B6032710537
:1001A0000CF061C0121613066CF537014801062EDB
:1001B00004C096948794779467940A94D2F721E0C8
:1001C00030E040E050E004C0220F331F441F551FB1
:1001D0006A95D2F721503040404050402E213F21B7
:1001E00040235123211531054105510521F021E01E
:1001F00030E040E050E079018A01E628F72808293C
:1002000019293CC0232BD1F1260E371E350146019A
:10021000062E04C096948794779467940A94D2F734
:1002200021E030E040E050E004C0220F331F441FC3
:10023000551F6A95D2F721503040404050402A2146
:100240003B214C215D21211531054105510521F04E
:1002500021E030E040E050E059016A01A628B728CB
:10026000C828D9280BC0821593052CF01C01AA249C
:10027000BB24650103C0EE24FF24870111969C91E5
:10028000D20111968C91981709F445C0992339F041
:10029000A80197012A193B094C095D0906C0A6016E
:1002A00095012E193F09400B510B57FD08C01182D3
:1002B0003382228224833583468357831DC081E0A5
:1002C00081833382228288279927DC01821B930B4A
:1002D000A40BB50B84839583A683B7830DC0220F2F
:1002E000331F441F551F24833583468357838281E0
:1002F000938101979383828324813581468157813D
:10030000DA01C9010197A109B1098F5F9F4FAF4F72
:10031000BF4328F30BC0918333822282EA0CFB1C7B
:100320000C1D1D1DE482F5820683178383E0808304
:10033000248135814681578157FF1AC0C901AA27F8
:1003400097FDA095BA2F81709070A070B0705695EF
:10035000479537952795822B932BA42BB52B848318
:100360009583A683B7838281938101969383828349
:10037000DF0101C0D201CD01CDB7DEB7E2E10C94BF
:10038000BA1BA0E2B0E0E7ECF1E00C94AA1B698391
:100390007A838B839C832D833E834F835887E9E048
:1003A000EE2EF12CEC0EFD1ECE010196B7010E943F
:1003B0009A058E010F5E1F4FCE010596B8010E946F
:1003C0009A058A8991E089278A8BC701B801AE0115
:1003D000475E5F4F0E9475000E94C504A096E6E04C
:1003E0000C94C61BA0E2B0E0E8EFF1E00C94AA1B6D
:1003F00069837A838B839C832D833E834F835887C5
:10040000F9E0EF2EF12CEC0EFD1ECE010196B701A6
:100410000E949A058E010F5E1F4FCE010596B8010E
:100420000E949A05C701B801AE01475E5F4F0E9466
:1004300075000E94C504A096E6E00C94C61BA0E2DD
:10044000B0E0E5E2F2E00C949E1B69837A838B8333
:100450009C832D833E834F835887CE010196BE0136
:10046000675F7F4F0E949A05CE010596BE016F5EC1
:100470007F4F0E949A059985923088F08989823051
:10048000C8F0943019F4823051F404C0843029F457
:10049000923081F482EB90E0C6C0923049F420E0C3
:1004A0009A858A89981321E02A87CE010996BBC0D4
:1004B000823049F420E09A858A89981321E02A8BBA
:1004C000CE014196B0C02D843E844F8458886D88FB
:1004D0007E888F88988CEE24FF248701AA24BB2471
:1004E000650140E050E060E070E0E0E0F0E0C10174
:1004F00081709070892BE9F0E60CF71C081D191D1E
:100500009A01AB012A0D3B1D4C1D5D1D80E090E062
:10051000A0E0B0E0E614F7040805190520F481E036
:1005200090E0A0E0B0E0BA01A901480F591F6A1F8E
:100530007B1FAA0CBB1CCC1CDD1C97FE08C081E0F5
:1005400090E0A0E0B0E0A82AB92ACA2ADB2A3196B6
:10055000E032F10549F0660C771C881C991C569412
:10056000479437942794C3CFFA85EA892B893C892D
:100570008B859C85280F391F2E5F3F4F17C0CA01FE
:1005800081709070892B61F016950795F794E79428
:1005900080E090E0A0E0B0E8E82AF92A0A2B1B2BC3
:1005A00076956795579547952F5F3F4F77FDE7CF36
:1005B0000CC0440F551F661F771F17FD4160EE0CDE
:1005C000FF1C001F111F21503040403090E05907A0
:1005D00090E0690790E4790760F32B8F3C8FDB0193
:1005E000CA018F779070A070B07080349105A1051A
:1005F000B10561F447FD0AC0E114F10401051105DC
:1006000029F0405C5F4F6F4F7F4F40781A8EFE1786
:1006100011F081E08A8F4D8F5E8F6F8F78A383E01A
:10062000898FCE0149960E94C504A096E2E10C9400
:10063000BA1BA8E1B0E0EFE1F3E00C94AA1B6983D8
:100640007A838B839C832D833E834F83588789E0F5
:10065000E82EF12CEC0EFD1ECE010196B7010E9492
:100660009A058E010F5E1F4FCE010596B8010E94BC
:100670009A058985823040F08989823028F0C70147
:10068000B8010E94120601C08FEF6896E6E00C9454
:10069000C61BA8E1B0E0EFE4F3E00C94AA1B698369
:1006A0007A838B839C832D833E834F83588789E095
:1006B000E82EF12CEC0EFD1ECE010196B7010E9432
:1006C0009A058E010F5E1F4FCE010596B8010E945C
:1006D0009A058985823040F08989823028F0C701E7
:1006E000B8010E94120601C08FEF6896E6E00C94F4
:1006F000C61BA8E1B0E0EFE7F3E00C94AA1B698306
:100700007A838B839C832D833E834F83588789E034
:10071000E82EF12CEC0EFD1ECE010196B7010E94D1
:100720009A058E010F5E1F4FCE010596B8010E94FB
:100730009A058985823040F08989823028F0C70186
:10074000B8010E94120601C081E06896E6E00C94B0
:10075000C61BACE0B0E0EFEAF3E00C94AE1B69839B
:100760007A838B839C83CE010196BE016B5F7F4FA2
:100770000E949A058D81823061F1823050F184307F
:1007800021F48E81882351F12EC02F81388537FDC9
:1007900020C06E812F3131051CF06623F9F023C093
:1007A0008EE190E0821B930B29853A854B855C8511
:1007B00004C056954795379527958A95D2F76623B5
:1007C000B1F050954095309521953F4F4F4F5F4F79
:1007D0000EC020E030E040E050E009C02FEF3FEFD6
:1007E0004FEF5FE704C020E030E040E050E8B9019F
:1007F000CA012C96E2E00C94CA1BA8E0B0E0E3E04A
:10080000F4E00C94A61B7B018C0161157105810538
:10081000910519F482E0898360C083E089838EE1C9
:10082000C82ED12CDC82CB82ED82FE820F8318870A
:10083000C801B7010E947604FC013197F7FF3BC065
:10084000222733272E1B3F0B57016801022E04C0BD
:10085000D694C794B794A7940A94D2F740E050E096
:1008600060E070E081E090E0A0E0B0E004C0880FBC
:10087000991FAA1FBB1F2A95D2F70197A109B10999
:100880008E219F21A023B1230097A105B10521F05E
:1008900041E050E060E070E04A295B296C297D2945
:1008A0004D835E836F8378878EE190E08E1B9F0B74
:1008B0009C838B8312C0309781F00E2E04C0EE0C07
:1008C000FF1C001F111F0A94D2F7ED82FE820F83D6
:1008D0001887CE1ADF0ADC82CB821A82CE010196FB
:1008E0000E94C5042896EAE00C94C21BEF92FF9286
:1008F0000F931F937B018C0180E0E81680E0F806DF
:1009000081E0080780E0180788F48FEFE816F1040B
:100910000105110531F028F088E090E0A0E0B0E09A
:1009200017C080E090E0A0E0B0E012C080E0E816E0
:1009300080E0F80680E0080781E0180728F088E1E9
:1009400090E0A0E0B0E004C080E190E0A0E0B0E082
:1009500020E230E040E050E0281B390B4A0B5B0BF3
:1009600004C016950795F794E7948A95D2F7F70196
:10097000E654FF4F8081281B310941095109C90103
:100980001F910F91FF90EF900895DF92EF92FF92E9
:100990000F931F93FC01E480F58006811781D180BD
:1009A0008081823048F480E090E0A0E1B0E0E82A65
:1009B000F92A0A2B1B2BA5C0843009F49FC0823072
:1009C00021F4EE24FF24870105C0E114F1040105A0
:1009D000110519F4E0E0F0E096C0628173819FEFA9
:1009E000623879070CF05BC022E83FEF261B370B1B
:1009F0002A3131052CF020E030E040E050E02AC000
:100A0000B801A701022E04C07695679557954795C2
:100A10000A94D2F781E090E0A0E0B0E004C0880F33
:100A2000991FAA1FBB1F2A95D2F70197A109B109E7
:100A30008E219F21A023B1230097A105B10521F0AC
:100A400081E090E0A0E0B0E09A01AB01282B392BC7
:100A50004A2B5B2BDA01C9018F779070A070B070C0
:100A600080349105A105B10539F427FF09C0205C48
:100A70003F4F4F4F5F4F04C0215C3F4F4F4F5F4F81
:100A8000E0E0F0E02030A0E03A07A0E04A07A0E470
:100A90005A0710F0E1E0F0E079018A0127C06038E0
:100AA000710564F5FB01E158FF4FD801C7018F774D
:100AB0009070A070B07080349105A105B10539F433
:100AC000E7FE0DC080E490E0A0E0B0E004C08FE35A
:100AD00090E0A0E0B0E0E80EF91E0A1F1B1F17FF10
:100AE00005C016950795F794E794319687E016951B
:100AF0000795F794E7948A95D1F705C0EE24FF2473
:100B00008701EFEFF0E06E2F679566276795902FCE
:100B10009F77D794DD24D7948E2F8695492F462B27
:100B2000582F5D29B701CA011F910F91FF90EF90D7
:100B3000DF900895FC01DB01408151812281622F09
:100B40006F7770E0221F2227221F9381892F880F41
:100B5000822B282F30E0991F9927991F11969C937B
:100B6000119721153105A9F541155105610571054B
:100B700011F482E037C082E89FEF13969C938E9326
:100B800012979A01AB0167E0220F331F441F551FD4
:100B90006A95D1F783E08C930DC0220F331F441F59
:100BA000551F12968D919C911397019713969C93C4
:100BB0008E931297203080E0380780E0480780E469
:100BC000580758F314962D933D934D935C931797C4
:100BD00008952F3F310579F44115510561057105DF
:100BE00019F484E08C93089564FF03C081E08C9332
:100BF00012C01C9210C02F57304013963C932E9376
:100C0000129783E08C9387E0440F551F661F771F70
:100C10008A95D1F7706414964D935D936D937C9390
:100C2000179708951F93DC01FB019C91923008F403
:100C300047C08081823008F443C0943051F411964B
:100C40001C91843099F58181682F70E0611B7109D6
:100C50003FC0843021F0923031F48230B9F181818B
:100C6000882389F12DC011961C9111978230F1F0E3
:100C700081811817D9F412962D913C911397828196
:100C800093818217930794F028173907BCF01496C4
:100C90008D919D910D90BC91A02D2481358146812F
:100CA0005781281739074A075B0718F4112341F0C9
:100CB0000AC082179307A407B50740F4112319F05F
:100CC00061E070E005C06FEF7FEF02C060E070E0B0
:100CD000CB011F910895DF93CF930F92CDB7DEB76D
:100CE00081E0898389810F90CF91DF910895DF930F
:100CF000CF9300D000D000D0CDB7DEB78A836B830E
:100D00004C8381E089838A81843008F0D0C08B8154
:100D1000883008F0CCC08C81823008F0C8C08A814D
:100D2000282F30E03E832D836D817E8161307105F7
:100D300009F441C08D819E818230910534F42D816A
:100D40003E812115310571F0B0C06D817E81623028
:100D5000710509F459C08D819E818330910509F494
:100D60007CC0A3C0AAE3B0E0EAE3F0E08081482FB2
:100D70008B81282F30E081E090E002C0880F991F1E
:100D80002A95E2F7809584238C93AAE3B0E0EAE306
:100D9000F0E08081482F8C81282F30E08B81882FD4
:100DA00090E0B90102C0660F771F8A95E2F7CB0188
:100DB000842B8C937AC0A7E3B0E0E7E3F0E0808176
:100DC000482F8B81282F30E081E090E002C0880F0F
:100DD000991F2A95E2F7809584238C93A7E3B0E0CE
:100DE000E7E3F0E08081482F8C81282F30E08B8171
:100DF000882F90E0B90102C0660F771F8A95E2F74D
:100E0000CB01842B8C9351C0A4E3B0E0E4E3F0E089
:100E10008081482F8B81282F30E081E090E002C054
:100E2000880F991F2A95E2F7809584238C93A4E379
:100E3000B0E0E4E3F0E08081482F8C81282F30E09F
:100E40008B81882F90E0B90102C0660F771F8A95C9
:100E5000E2F7CB01842B8C9328C0A1E3B0E0E1E35F
:100E6000F0E08081482F8B81282F30E081E090E0F6
:100E700002C0880F991F2A95E2F7809584238C93EE
:100E8000A1E3B0E0E1E3F0E08081482F8C81282FDE
:100E900030E08B81882F90E0B90102C0660F771F88
:100EA0008A95E2F7CB01842B8C93198202C082E0F1
:100EB0008983898126960FB6F894DEBF0FBECDBF19
:100EC000CF91DF910895DF93CF9300D000D000D071
:100ED000CDB7DEB78A836B834C8381E089838A81B7
:100EE000843008F0D3C08B81883008F0CFC08C816B
:100EF000823020F08C81823008F0C8C08A81282F8F
:100F000030E03E832D836D817E816130710509F46F
:100F100041C08D819E818230910534F42D813E81C6
:100F20002115310571F0B0C06D817E81623071058F
:100F300009F459C08D819E818330910509F47CC0EC
:100F4000A3C0ABE3B0E0EBE3F0E08081482F8B81FE
:100F5000282F30E081E090E002C0880F991F2A9589
:100F6000E2F7809584238C93ABE3B0E0EBE3F0E011
:100F70008081482F8C81282F30E08B81882F90E052
:100F8000B90102C0660F771F8A95E2F7CB01842B67
:100F90008C937AC0A8E3B0E0E8E3F0E08081482FCA
:100FA0008B81282F30E081E090E002C0880F991FEC
:100FB0002A95E2F7809584238C93A8E3B0E0E8E3D8
:100FC000F0E08081482F8C81282F30E08B81882FA2
:100FD00090E0B90102C0660F771F8A95E2F7CB0156
:100FE000842B8C9351C0A5E3B0E0E5E3F0E0808171
:100FF000482F8B81282F30E081E090E002C0880FDD
:10100000991F2A95E2F7809584238C93A5E3B0E09D
:10101000E5E3F0E08081482F8C81282F30E08B8140
:10102000882F90E0B90102C0660F771F8A95E2F71A
:10103000CB01842B8C9328C0A2E3B0E0E2E3F0E084
:101040008081482F8B81282F30E081E090E002C022
:10105000880F991F2A95E2F7809584238C93A2E349
:10106000B0E0E2E3F0E08081482F8C81282F30E06F
:101070008B81882F90E0B90102C0660F771F8A9597
:10108000E2F7CB01842B8C93198202C082E0898322
:10109000898126960FB6F894DEBF0FBECDBFCF91E3
:1010A000DF910895DF93CF9300D000D00F92CDB79A
:1010B000DEB78A836B8381E089838A81843008F07C
:1010C00074C08B81883008F070C08A81282F30E08E
:1010D0003D832C838C819D818130910549F12C8148
:1010E0003D81223031052CF48C819D81009761F087
:1010F0005AC02C813D812230310571F18C819D8156
:1011000083309105E9F14FC0ABE3B0E0EBE3F0E0F1
:101110008081482F8B81282F30E081E090E0022EE3
:1011200002C0880F991F0A94E2F784278C933BC072
:10113000A8E3B0E0E8E3F0E08081482F8B81282F1E
:1011400030E081E090E0022E02C0880F991F0A94DF
:10115000E2F784278C9327C0A5E3B0E0E5E3F0E055
:101160008081482F8B81282F30E081E090E0022E93
:1011700002C0880F991F0A94E2F784278C9313C04A
:10118000A2E3B0E0E2E3F0E08081482F8B81282FDA
:1011900030E081E090E0022E02C0880F991F0A948F
:1011A000E2F784278C93198202C082E089838981C7
:1011B0000F900F900F900F900F90CF91DF910895A7
:1011C000DF93CF93CDB7DEB727970FB6F894DEBF86
:1011D0000FBECDBF8A836B835D834C8381E089839F
:1011E0008C819D81009709F47DC08A81843008F04C
:1011F00076C08B81883008F072C08A81282F30E059
:101200003F832E834E815F814130510559F18E819C
:101210009F818230910534F42E813F812115310563
:1012200069F05BC04E815F814230510579F18E815A
:101230009F818330910509F43DC04FC0E9E3F0E0A0
:101240008081282F30E08B81882F90E0A90102C097
:10125000559547958A95E2F7CA018170EC81FD8129
:1012600080833BC0E6E3F0E08081282F30E08B8173
:10127000882F90E0A90102C0559547958A95E2F71D
:10128000CA018170EC81FD81808327C0E3E3F0E037
:101290008081282F30E08B81882F90E0A90102C047
:1012A000559547958A95E2F7CA018170EC81FD81D9
:1012B000808313C0E0E3F0E08081282F30E08B8151
:1012C000882F90E0A90102C0559547958A95E2F7CD
:1012D000CA018170EC81FD818083198205C082E0A2
:1012E000898302C083E08983898127960FB6F894A9
:1012F000DEBF0FBECDBFCF91DF910895DF93CF93B7
:1013000000D000D0CDB7DEB781E08A834DC089819F
:10131000882F90E0880F991F880F991FFC01E454D3
:10132000FE4F20818981882F90E0880F991F880FB8
:10133000991FFC01E354FE4F9081822F692F40E0FA
:101340000E9477068B838981882F90E0880F991FF0
:10135000880F991FFC01E454FE4F30818981882F4A
:1013600090E0880F991F880F991FFC01E354FE4FEE
:1013700020818981882F90E0880F991F0196880F1E
:10138000991FFC01E454FE4F9081832F622F492F57
:101390000E9463078C838B81882361F48C8188236E
:1013A00049F489818F5F89839091BA018981891776
:1013B00008F4ADCF8B81882321F48C81882309F434
:1013C0001A828A810F900F900F900F90CF91DF912A
:1013D0000895DF93CF9300D000D0CDB7DEB78A83D6
:1013E0007C836B8381E089839091BB018A81891B17
:1013F0008A839091BA018A818917F8F48A81882FAB
:1014000090E0880F991F880F991FFC01E454FE4F4C
:1014100040818A81882F90E0880F991F880F991F3B
:10142000FC01E354FE4F90812B813C81842F692F76
:10143000A9010E94E008898302C082E08983898132
:101440000F900F900F900F90CF91DF910895DF9341
:10145000CF9300D000D0CDB7DEB781E08C838BE096
:101460008B83BCC08B818B508A8319823AC08A815E
:10147000282F30E08981482F50E0C901880F991F3B
:10148000880F991F880F991F821B930B840F951F3C
:10149000880F991FFC01E553FE4F60818A81282F38
:1014A00030E08981482F50E0C901880F991F880FCB
:1014B000991F880F991F821B930B840F951F880F0C
:1014C000991FFC01E453FE4F9081862F692F41E064
:1014D0000E9477068C838C81882341F489818F5FF9
:1014E00089839091C9018981891708F28C818823A9
:1014F00061F58A81882F90E09C01220F331FC9017A
:10150000880F991F880F991F880F991F821B930BB3
:10151000FC01ED52FE4F40818A81882F90E09C01B2
:10152000220F331FC901880F991F880F991F880F39
:10153000991F821B930BFC01EC52FE4F9081842F6C
:10154000692F41E00E9477068C8319823BC08A8113
:10155000282F30E08981482F50E0C901880F991F5A
:10156000880F991F880F991F821B930B840F951F5B
:101570000596880F991FFC01E553FE4F60818A8113
:10158000282F30E08981482F50E0C901880F991F2A
:10159000880F991F880F991F821B930B840F951F2B
:1015A000880F991FFC01EA52FE4F9081862F692F08
:1015B00041E00E9477068C838C81882361F48981C5
:1015C0008F5F89838C81882331F49091CA0189814E
:1015D000891708F4BCCF8B818F5F8B839091C801F2
:1015E0008B81981708F03ECF8C810F900F900F9051
:1015F0000F90CF91DF910895DF93CF9300D000D06B
:10160000CDB7DEB78B836C8381E08A838B818B506F
:101610008B839091C8018B81891708F059C08C8108
:101620008A3008F052C0198249C08B81282F30E0DF
:101630008981482F50E0C901880F991F880F991F91
:10164000880F991F821B930B840F951F880F991F7A
:10165000FC01E553FE4F60818B81282F30E08981AA
:10166000482F50E0C901880F991F880F991F880FD4
:10167000991F821B930B840F951F880F991FFC01E4
:10168000E453FE4F40818C81282F30E08981882FE0
:1016900090E0F90102C0F595E7958A95E2F7CF0150
:1016A000982F9170862F642F492F0E9463078A8399
:1016B0008A81882379F489818F5F89839091C90118
:1016C0008981891708F4B1CF05C082E08A8302C0FE
:1016D00082E08A838A810F900F900F900F90CF91B4
:1016E000DF910895DF93CF9300D00F92CDB7DEB78F
:1016F0008A836B8381E089838A818B508A8390916E
:10170000C8018A818917B0F58B81813019F08B81EE
:10171000882369F58A81882F90E09C01220F331F6E
:10172000C901880F991F880F991F880F991F821B65
:10173000930BFC01ED52FE4F40818A81882F90E08F
:101740009C01220F331FC901880F991F880F991F11
:10175000880F991F821B930BFC01EC52FE4F908166
:10176000842F692F4B810E946307898305C082E023
:10177000898302C082E0898389810F900F900F9046
:10178000CF91DF910895DF93CF9300D000D0CDB7F4
:10179000DEB78A837C836B8381E089839091C80163
:1017A0008A81981798F08A81882F90E0AC014D5E6D
:1017B0005F4F8A81282F30E0CA01B9010E943A1B8D
:1017C000CB01EB81FC818083198202C082E0898396
:1017D00089810F900F900F900F90CF91DF91089516
:1017E000DF93CF93CDB7DEB727970FB6F894DEBF60
:1017F0000FBECDBF8C836D8381E08B838D818D3057
:1018000021F08D818E3009F064C08C818B508C83E7
:101810009091C8018C81891708F058C08D81282FBC
:1018200030E03F832E838E819F818D30910531F092
:101830002E813F812E30310519F004C01A8202C07A
:1018400081E08A8319823BC08C81282F30E0898116
:10185000482F50E0C901880F991F880F991F880FE2
:10186000991F821B930B840F951F0596880F991F54
:10187000FC01E553FE4F60818C81282F30E0898187
:10188000482F50E0C901880F991F880F991F880FB2
:10189000991F821B930B840F951F880F991FFC01C2
:1018A000EA52FE4F9081862F692F4A810E9463077A
:1018B0008B838B81882379F489818F5F89839091D1
:1018C000CA018981891708F4BFCF05C082E08B83E4
:1018D00002C082E08B838B8127960FB6F894DEBF1F
:1018E0000FBECDBFCF91DF910895DF93CF9300D08E
:1018F00000D0CDB7DEB781E08A838091E8018134E2
:1019000009F441C08091E801823409F04AC03BC02B
:101910008981882F90E0880F991FFC01E651FE4FC6
:1019200020818981882F90E0880F991FFC01E55163
:10193000FE4F9081822F692F41E00E9477068B83B2
:101940008981882F90E0880F991FFC01E651FE4F96
:1019500030818981882F90E0880F991FFC01E55123
:10196000FE4F908120911802832F692F422F0E94F1
:1019700063078C838B81882361F48C81882349F4ED
:1019800089818F5F89839091E7018981891708F4A4
:10199000BFCF8B81882339F48C81882321F41A826C
:1019A00002C082E08A838A810F900F900F900F907F
:1019B000CF91DF910895DF93CF9300D00F92CDB7F1
:1019C000DEB78A836B8381E089838091E80181346B
:1019D00021F08091E801823471F59091E7018A81CC
:1019E000891730F59091E9018B81891729F0909141
:1019F00018028B818917C9F48A81882F90E0880F9B
:101A0000991FFC01E651FE4F20818A81882F90E0CA
:101A1000880F991FFC01E551FE4F9081822F692F9D
:101A20004B810E946307898308C082E0898305C0D7
:101A300082E0898302C082E0898389810F900F90C0
:101A40000F90CF91DF910895DF93CF93CDB7DEB79D
:101A5000AB970FB6F894DEBF0FBECDBF81E08BA76A
:101A600080E090E0A0EFB1E48FA398A7A9A7BAA760
:101A70006FA178A589A59AA520E030E04AE755E452
:101A80000E941F02DC01CB018BA39CA3ADA3BEA3CC
:101A90006BA17CA18DA19EA120E030E040E85FE336
:101AA0000E94790388232CF481E090E09AA389A313
:101AB0003FC06BA17CA18DA19EA120E03FEF4FE72D
:101AC00057E40E94190318164CF56FA178A589A553
:101AD0009AA520E030E040E251E40E941F02DC01C0
:101AE000CB01BC01CD010E944900DC01CB019AA3CE
:101AF00089A30FC080E991E098A38F8F8F8D98A163
:101B00000197F1F798A38F8F89A19AA101979AA3C2
:101B100089A389A19AA1009769F714C06BA17CA140
:101B20008DA19EA10E944900DC01CB019AA389A34B
:101B300089A19AA19E8F8D8F8D8D9E8D0197F1F732
:101B40009E8F8D8F81E061E041E00E94770681E009
:101B500062E041E00E94770681E063E041E00E949C
:101B6000770680E067E041E00E94770680E066E06B
:101B700041E00E94770680E065E041E00E94770640
:101B800080E064E041E00E94770680E067E040E0AA
:101B90000E94630780E066E040E00E94630780E007
:101BA00065E041E00E94630780E064E040E00E945D
:101BB000630781E063E041E00E94630780E090E01A
:101BC000A0E8BFE3898F9A8FAB8FBC8F698D7A8D28
:101BD0008B8D9C8D20E030E04AE755E40E941F0287
:101BE000DC01CB018D8B9E8BAF8BB88F6D897E898D
:101BF0008F89988D20E030E040E85FE30E94790310
:101C000088232CF481E090E09C8B8B8B3FC06D8906
:101C10007E898F89988D20E03FEF4FE757E40E943F
:101C2000190318164CF5698D7A8D8B8D9C8D20E0EB
:101C300030E040E251E40E941F02DC01CB01BC0114
:101C4000CD010E944900DC01CB019C8B8B8B0FC026
:101C500080E991E09A8B898B89899A890197F1F7BC
:101C60009A8B898B8B899C8901979C8B8B8B8B8919
:101C70009C89009769F714C06D897E898F89988D3A
:101C80000E944900DC01CB019C8B8B8B8B899C894A
:101C9000988B8F878F8598890197F1F7988B8F871D
:101CA00081E063E040E00E94630780E090E0A0E80C
:101CB000B0E48B879C87AD87BE876B857C858D85DF
:101CC0009E8520E030E04AE755E40E941F02DC01D7
:101CD000CB018F839887A987BA876F81788589859B
:101CE0009A8520E030E040E85FE30E947903882392
:101CF0002CF481E090E09E838D833FC06F817885D6
:101D000089859A8520E03FEF4FE757E40E94190349
:101D100018164CF56B857C858D859E8520E030E01E
:101D200040E251E40E941F02DC01CB01BC01CD0165
:101D30000E944900DC01CB019E838D830FC080E9A6
:101D400091E09C838B838B819C810197F1F79C832D
:101D50008B838D819E8101979E838D838D819E8152
:101D6000009769F714C06F81788589859A850E94EC
:101D70004900DC01CB019E838D838D819E819A83F6
:101D8000898389819A810197F1F79A83898381E018
:101D900061E040E00E94630788E20E94790F81E0E1
:101DA00061E040E00E9463078FE00E94790F81E0CC
:101DB00061E040E00E94630781E00E94790F81E0CA
:101DC00061E040E00E94630786E00E94790F8BA5E6
:101DD000AB960FB6F894DEBF0FBECDBFCF91DF91AB
:101DE0000895DF93CF9300D0CDB7DEB78A8381E02B
:101DF000898381E061E041E00E9463078A810E945B
:101E0000790F89810F900F90CF91DF910895DF9323
:101E1000CF9300D0CDB7DEB78A8381E0898381E09C
:101E200061E040E00E9463078A810E94790F898106
:101E30000F900F90CF91DF910895DF93CF9300D053
:101E40000F92CDB7DEB79B838A8381E0898310C070
:101E500081E061E041E00E946307EA81FB8120812B
:101E60008A819B8101969B838A83822F0E94790FAE
:101E7000EA81FB818081882359F789810F900F9037
:101E80000F90CF91DF910895DF93CF9300D00F9201
:101E9000CDB7DEB78A836B8381E089838A8188230B
:101EA00009F18A818330F0F48B818823D9F08B810A
:101EB0008131C0F481E061E040E00E9463078A81E3
:101EC000882F90E001960024969587950794969523
:101ED00087950794982F802D982F8B81890F81509B
:101EE0000E94790F89810F900F900F90CF91DF9111
:101EF0000895DF93CF93CDB7DEB7E9970FB6F89487
:101F0000DEBF0FBECDBF89AF81E062E040E00E943E
:101F1000630781E063E040E00E94630789AD982F8A
:101F2000991F9927991F80E067E0492F0E94630756
:101F300089AD8295869586958370982F917080E003
:101F400066E0492F0E94630789AD82958695877068
:101F5000982F917080E065E0492F0E94630789AD5A
:101F600082958F70982F917080E064E0492F0E94D5
:101F7000630781E063E041E00E94630780E090E056
:101F8000A0E8BFE38DAB9EABAFABB8AF6DA97EA9A8
:101F90008FA998AD20E030E04AE755E40E941F0287
:101FA000DC01CB0189AB9AABABABBCAB69A97AA91D
:101FB0008BA99CA920E030E040E85FE30E94790310
:101FC00088232CF481E090E098AB8FA73FC069A9EB
:101FD0007AA98BA99CA920E03FEF4FE757E40E9424
:101FE000190318164CF56DA97EA98FA998AD20E0AC
:101FF00030E040E251E40E941F02DC01CB01BC0151
:10200000CD010E944900DC01CB0198AB8FA70FC026
:1020100080E991E09EA78DA78DA59EA50197F1F778
:102020009EA78DA78FA598A9019798AB8FA78FA57D
:1020300098A9009769F714C069A97AA98BA99CA9E6
:102040000E944900DC01CB0198AB8FA78FA598A90E
:102050009CA78BA78BA59CA50197F1F79CA78BA7A5
:1020600081E063E040E00E94630780E090E0A0E848
:10207000B0E48FA398A7A9A7BAA76FA178A589A54F
:102080009AA520E030E04AE755E40E941F02DC01F7
:10209000CB018BA39CA3ADA3BEA36BA17CA18DA1FF
:1020A0009EA120E030E040E85FE30E9479038823AE
:1020B0002CF481E090E09AA389A33FC06BA17CA19E
:1020C0008DA19EA120E03FEF4FE757E40E94190346
:1020D00018164CF56FA178A589A59AA520E030E0E7
:1020E00040E251E40E941F02DC01CB01BC01CD01A2
:1020F0000E944900DC01CB019AA389A30FC080E9AB
:1021000091E098A38F8F8F8D98A10197F1F798A3F5
:102110008F8F89A19AA101979AA389A389A19AA1D6
:10212000009769F714C06BA17CA18DA19EA10E94AC
:102130004900DC01CB019AA389A389A19AA19E8FB2
:102140008D8F8D8D9E8D0197F1F79E8F8D8F89AD2F
:10215000869586958695982F917080E067E0492F47
:102160000E94630789AD86958695982F917080E0CF
:1021700066E0492F0E94630789AD8695982F91707C
:1021800080E065E0492F0E94630789AD982F917028
:1021900080E064E0492F0E94630781E063E041E052
:1021A0000E94630780E090E0A0E8BFE3898F9A8FE8
:1021B000AB8FBC8F698D7A8D8B8D9C8D20E030E04C
:1021C0004AE755E40E941F02DC01CB018D8B9E8BF8
:1021D000AF8BB88F6D897E898F89988D20E030E034
:1021E00040E85FE30E94790388232CF481E090E0CB
:1021F0009C8B8B8B3FC06D897E898F89988D20E069
:102200003FEF4FE757E40E94190318164CF5698D0C
:102210007A8D8B8D9C8D20E030E040E251E40E946D
:102220001F02DC01CB01BC01CD010E944900DC0191
:10223000CB019C8B8B8B0FC080E991E09A8B898BB3
:1022400089899A890197F1F79A8B898B8B899C8967
:1022500001979C8B8B8B8B899C89009769F714C0A5
:102260006D897E898F89988D0E944900DC01CB01A0
:102270009C8B8B8B8B899C89988B8F878F8598897A
:102280000197F1F7988B8F8781E063E040E00E942F
:10229000630780E090E0A0E8B0E48B879C87AD877F
:1022A000BE876B857C858D859E8520E030E04AE782
:1022B00055E40E941F02DC01CB018F839887A98718
:1022C000BA876F81788589859A8520E030E040E87B
:1022D0005FE30E94790388232CF481E090E09E83E1
:1022E0008D833FC06F81788589859A8520E03FEF97
:1022F0004FE757E40E94190318164CF56B857C854F
:102300008D859E8520E030E040E251E40E941F026E
:10231000DC01CB01BC01CD010E944900DC01CB01F5
:102320009E838D830FC080E991E09C838B838B819A
:102330009C810197F1F79C838B838D819E8101970E
:102340009E838D838D819E81009769F714C06F8174
:10235000788589859A850E944900DC01CB019E839E
:102360008D838D819E819A83898389819A8101974A
:10237000F1F79A83898380E0E9960FB6F894DEBF7F
:102380000FBECDBFCF91DF910895DF93CF93CDB72F
:10239000DEB72D970FB6F894DEBF0FBECDBF6987AD
:1023A0007A878B879C8781E08E8381E08D8381E0B3
:1023B00061E040E00E9463078F8386E00E94790F0E
:1023C00088878F81882309F0EBC08885882309F0EE
:1023D000E7C089859A85AB85BC85BB23CCF481E0B9
:1023E00061E041E00E9463078F838DE20E94790FD4
:1023F000888789859A85AB85BC85B095A095909591
:1024000081959F4FAF4FBF4F89879A87AB87BC8716
:102410008F81882309F0C4C08885882309F0C0C053
:1024200089859A85AB85BC8589839A83AB83BC8378
:102430001CC081E061E040E00E9463078F8384E17B
:102440000E94790F888789819A81AB81BC812AE0BB
:1024500030E040E050E0BC01CD010E944D1BDA01AC
:10246000C90189839A83AB83BC8389819A81AB81BB
:10247000BC818B309105A105B10530F08F81882397
:1024800019F488858823A9F28F81882309F088C0F0
:102490008885882309F084C081E061E040E00E94E3
:1024A00063078F8384E00E94790F88878F81882358
:1024B00009F076C08885882309F072C02DC08D810F
:1024C0008F5F8D8381E061E041E00E9463078F832D
:1024D00089859A85AB85BC852AE030E040E050E0F4
:1024E000BC01CD010E946F1BDC01CB01805D0E940D
:1024F000790F888789859A85AB85BC852AE030E08D
:1025000040E050E0BC01CD010E946F1BDA01C9011F
:1025100089879A87AB87BC8789859A85AB85BC8577
:102520000097A105B10531F08F81882319F48885C2
:10253000882329F28F81882399F58885882381F55E
:102540000AC081E061E040E00E9463078F8384E17C
:102550000E94790F88878D818D878D85882311F062
:1025600081E08D879D858D8181508D8381E08927D4
:10257000882331F48F81882319F48885882309F30F
:102580008F81882369F48885882351F481E061E094
:1025900040E00E9463078F8386E00E94790F88875E
:1025A0008F81882321F48885882309F41E821E8266
:1025B0008E812D960FB6F894DEBF0FBECDBFCF91A2
:1025C000DF910895DF93CF93CDB7DEB766970FB64F
:1025D000F894DEBF0FBECDBF698B7A8B8B8B9C8B43
:1025E00081E08E871D8619861A861B861C861D82B1
:1025F0001E821F82188680E090E0A0E0B0E0898310
:102600009A83AB83BC8381E061E040E00E94630772
:102610008F8786E00E94790F888B8F85882309F049
:102620008FC18889882309F08BC169897A898B8950
:102630009C8920E030E040E050E00E94790388234C
:102640009CF481E061E041E00E9463078F878DE2A6
:102650000E94790F888B89899A89AB89BC89B05887
:10266000898B9A8BAB8BBC8B69897A898B899C8986
:102670000E944900DC01CB018D839E83AF83B88724
:102680008D819E81AF81B88589879A87AB87BC870A
:1026900069857A858B859C850E94FD039B01AC0131
:1026A00069897A898B899C890E94C101DC01CB01EF
:1026B00089839A83AB83BC838F85882309F040C1CB
:1026C0008889882309F03CC11CC081E061E040E0BA
:1026D0000E9463078F8784E10E94790F8F878D8125
:1026E0009E81AF81B8852AE030E040E050E0BC0137
:1026F000CD010E944D1BDA01C9018D839E83AF83FA
:10270000B8878D819E81AF81B8858B309105A105F9
:10271000B10530F08F85882319F488898823A9F2C0
:102720008F85882309F00CC18889882309F008C1A6
:1027300081E061E040E00E9463078F8784E00E94AF
:10274000790F888B8F85882309F0FAC088898823C0
:1027500009F0F6C08D858F5F8D8781E061E041E0F3
:102760000E94630789859A85AB85BC852AE030E0A5
:1027700040E050E0BC01CD010E944D1BDC01CB01CB
:10278000805D0E94790F89859A85AB85BC852AE09A
:1027900030E040E050E0BC01CD010E944D1BDA0169
:1027A000C90189879A87AB87BC8789859A85AB855C
:1027B000BC850097A105B10531F08F85882319F4F8
:1027C0008889882339F28F85882309F0B9C08889E0
:1027D000882309F0B5C081E061E040E00E94630712
:1027E0008F8784E10E94790F888B8D858E8B9E89DF
:1027F000992311F081E08E8B9E898D8581508D8784
:1028000081E08927882331F48F85882319F488890A
:10281000882309F38F85882309F092C0888988234B
:1028200009F08EC081E061E040E00E9463078F877D
:1028300086E00E94790F888B8F85882309F080C0FD
:102840008889882309F07CC069817A818B819C8189
:1028500020E030E040E050E00E941903181654F4E4
:1028600081E061E041E00E9463078F878EE20E9471
:10287000790F888B8F85882309F062C08889882327
:1028800009F05EC01D863EC08D858F5F8D87698192
:102890007A818B819C8120E030E040E251E40E940B
:1028A0001F02DC01CB0189839A83AB83BC836981DE
:1028B0007A818B819C810E944900DC01CB01898750
:1028C0009A87AB87BC8769857A858B859C850E94B2
:1028D000FD039B01AC0169817A818B819C810E94FF
:1028E000C101DC01CB0189839A83AB83BC8381E086
:1028F00061E041E00E9463078F878985805D0E94C7
:10290000790F888B1D8A69817A818B819C8120E077
:1029100030E040E050E00E941903181614F491E0F2
:102920009D8B81E09D898927882351F48D85863090
:1029300038F48F85882321F48889882309F4A4CF6B
:102940008F85882321F48889882309F41E868E8543
:1029500066960FB6F894DEBF0FBECDBFCF91DF9164
:102960000895DF93CF93CDB7DEB72B970FB6F894CA
:10297000DEBF0FBECDBF9E838D836F8348872987BF
:1029800081E08A838885853608F452C088858D3633
:1029900008F04EC08885282F30E08F81882F90E086
:1029A000820F931F01978D3691050CF041C081E095
:1029B00061E040E00E9463078B838885882F90E068
:1029C0008D559040880F991F880F991F880F991F68
:1029D0000E94790F8C83198215C081E061E041E08B
:1029E0000E9463078B838981282F30E08D819E812F
:1029F000FC01E20FF31F80810E94790F8C83898193
:102A00008F5F89838981282F30E08F81882F90E024
:102A1000880F991F880F991F880F991F281739074A
:102A20004CF48B81882331F48C818823B1F202C06D
:102A300082E08A838A81823071F18B81882359F503
:102A40008C81882341F589858E3619F089858E36EB
:102A500001F581E061E040E00E9463078B83898596
:102A6000282F30E03B872A878A859B858E36910503
:102A700031F02A853B852F36310531F00CC086E0D8
:102A80000E94790F8C8307C084E00E94790F8C83A9
:102A900002C082E08A838A81823039F08B81882368
:102AA00021F48C81882309F41A828A812B960FB62F
:102AB000F894DEBF0FBECDBFCF91DF910895DF93B5
:102AC000CF9300D000D000D0CDB7DEB78C8381E0AB
:102AD00089838C818E3619F08C818E3601F581E0E8
:102AE00061E040E00E9463078A838C81282F30E0F8
:102AF0003E832D838D819E818E36910531F02D810F
:102B00003E812F36310531F00CC086E00E94790FEE
:102B10008B8307C084E00E94790F8B8302C082E020
:102B200089838981823039F08A81882321F48B81DD
:102B3000882309F41982898126960FB6F894DEBF9E
:102B40000FBECDBFCF91DF910895DF93CF9300D01B
:102B500000D00F92CDB7DEB781E08B831A82198245
:102B60009091F1018091F001891708F4AFC0909124
:102B7000F2018091F001891708F4A8C054C08A813D
:102B8000282F30E0C901880F991F820F931FFC0185
:102B9000E55FFD4F40818A81282F30E0C901880F11
:102BA000991F820F931FFC01E45FFD4F9081842FDA
:102BB000692F40E00E9477068C838A81282F30E0BD
:102BC000C901880F991F820F931FFC01E55FFD4F1C
:102BD00050818A81282F30E0C901880F991F820F08
:102BE000931FFC01E45FFD4F40818A81282F30E074
:102BF000C901880F991F820F931FFC01E35FFD4FEE
:102C00009081852F642F492F0E9463078D838C81CB
:102C1000882319F48D81882319F081E0898309C004
:102C20008A818F5F8A839091F1018A81891708F4E4
:102C3000A6CF8981882309F044C01A823CC08A81CA
:102C4000882F90E0880F991FFC01ED5FFD4F2081D8
:102C50008A81882F90E0880F991FFC01EC5FFD4F5F
:102C60009081822F692F41E00E9477068C838A81B0
:102C7000882F90E0880F991FFC01ED5FFD4F2081A8
:102C80008A81882F90E0880F991FFC01EC5FFD4F2F
:102C90009081822F692F41E00E9463078D838C8190
:102CA000882319F48D81882319F081E0898309C074
:102CB0008A818F5F8A839091F2018A81891708F453
:102CC000BECF8981882321F41B8202C082E08B83DE
:102CD0008B810F900F900F900F900F90CF91DF91FD
:102CE0000895DF93CF93CDB7DEB765970FB6F8940D
:102CF000DEBF0FBECDBF9D8B8C8B81E08A8B8C8914
:102D00009D89009709F461C181E08B8B198AEC8958
:102D1000FD898FEF8083188A51C18889882F90E0C0
:102D2000880F991FFC01ED5FFD4F20818889882F56
:102D300090E0880F991FFC01EC5FFD4F9081822F7E
:102D4000692F40E00E9463078A8B1F860DC18F8523
:102D5000282F30E0C901880F991F820F931FFC01B3
:102D6000E55FFD4F40818F85282F30E0C901880F36
:102D7000991F820F931FFC01E45FFD4F90819E011C
:102D80002D5E3F4F842F692FA9010E94E0088A8B96
:102D90008B89882309F0E5C08A89882309F0E1C07E
:102DA00080E090E0A0E2B1E48B879C87AD87BE878E
:102DB0006B857C858D859E8520E030E04AE755E473
:102DC0000E941F02DC01CB018F839887A987BA87F5
:102DD0006F81788589859A8520E030E040E85FE35F
:102DE0000E94790388232CF481E090E09E838D83F8
:102DF0003FC06F81788589859A8520E03FEF4FE756
:102E000057E40E94190318164CF56B857C858D8557
:102E10009E8520E030E040E251E40E941F02DC0188
:102E2000CB01BC01CD010E944900DC01CB019E8396
:102E30008D830FC080E991E09C838B838B819C8183
:102E40000197F1F79C838B838D819E8101979E83EF
:102E50008D838D819E81009769F714C06F8178857D
:102E600089859A850E944900DC01CB019E838D8370
:102E70008D819E819A83898389819A810197F1F757
:102E80009A8389838F85282F30E0C901880F991F85
:102E9000820F931FFC01E55FFD4F40818F85282F36
:102EA00030E0C901880F991F820F931FFC01E45F76
:102EB000FD4F90819E012D5E3F4F842F692FA90108
:102EC0000E94E0088A8B8A89882309F04AC08B898E
:102ED000882309F046C081E0898B8F85282F30E058
:102EE0008091F201882F90E0A901489F9001499FAD
:102EF000300D589F300D11248889882F90E0820F63
:102F0000931FFC01ED50FE4F8081EC89FD89808389
:102F100021C08F85282F30E0C901880F991F820FAB
:102F2000931FFC01E55FFD4F40818F85282F30E026
:102F3000C901880F991F820F931FFC01E45FFD4FA9
:102F400090819E012D5E3F4F842F692FA9010E9421
:102F5000E0088A8B8B89882381F48A898823C9F2C7
:102F60000CC08F858F5F8F878A89882331F4909179
:102F7000F1018F85891708F4EACE8989813039F10A
:102F80008A89882321F58889882F90E0880F991FE6
:102F9000FC01ED5FFD4F20818889882F90E0880F2C
:102FA000991FFC01EC5FFD4F9081822F692F41E05A
:102FB0000E9463078A8B88898F5F888B9091F201CA
:102FC0008889891708F4A9CE02C083E08A8B8A8990
:102FD00065960FB6F894DEBF0FBECDBFCF91DF91DF
:102FE0000895DF93CF9300D000D000D0CDB7DEB7E7
:102FF0008FEF8E8319821A821B821C820E94240DFD
:103000000E94A5150E94750C0E947E0988E00E940E
:10301000070F0E946F1A8D8380911902882319F47B
:103020008D818823B1F380911902882309F482C02D
:103030008FE00E94070F80911902882309F45BC07A
:1030400081E00E94070F81E061E00E94440F80E66A
:1030500090E00E941D0F26C08E81833459F18E812D
:103060000E94F10E89819A81AB81BC812AE030E017
:1030700040E050E0BC01CD010E941B1B9B01AC0154
:103080008E81882F90E0C097AA2797FDA095BA2F30
:10309000820F931FA41FB51F89839A83AB83BC83C0
:1030A0008FEF8E83CE0106960E94B1188D838D819D
:1030B000882391F280911A02882319F010921A0243
:1030C000BACF8D81882359F58CE00E94070F81E0EB
:1030D0000E94070F88E690E00E941D0F82E065E0E5
:1030E0000E94440F89819A81AB81BC81BC01CD01D2
:1030F0000E94C511FFCF81E00E94070F82E063E0CC
:103100000E94440F8D81882329F481E790E00E947A
:103110001D0F91CF8DE790E00E941D0F8CCF80E0B6
:1031200090E026960FB6F894DEBF0FBECDBFCF91CC
:10313000DF91089581E00E94070F8CE00E94070F45
:1031400081E061E00E94440F89E890E00E941D0F39
:1031500082E061E00E94440F86E990E00E941D0F2A
:10316000FFCFDF93CF93CDB7DEB7AE970FB6F8940E
:10317000DEBF0FBECDBF9EA78DA781E08CA78DA51A
:103180009EA5009709F49FC105C08DA59EA50E942C
:1031900071168CA78DA59EA50E9471168CA78CA573
:1031A000882329F4EDA5FEA580818F3F71F3EDA55D
:1031B000FEA58081803330F0EDA5FEA580818A33A5
:1031C00008F483C1EDA5FEA58081833409F47DC197
:1031D00082E08CA781E080931A0281E065E00E9482
:1031E000440F82EA90E00E941D0F82E065E00E9499
:1031F000440F8AEA90E00E941D0F1BA6EDC088E0F4
:103200000E94070F80E090E0A0E2B1E48FA398A7AE
:10321000A9A7BAA76FA178A589A59AA520E030E053
:103220004AE755E40E941F02DC01CB018BA39CA35B
:10323000ADA3BEA36BA17CA18DA19EA120E030E037
:1032400040E85FE30E94790388232CF481E090E05A
:103250009AA389A33FC06BA17CA18DA19EA120E070
:103260003FEF4FE757E40E94190318164CF56FA182
:1032700078A589A59AA520E030E040E251E40E94BB
:103280001F02DC01CB01BC01CD010E944900DC0121
:10329000CB019AA389A30FC080E991E098A38F8FF7
:1032A0008F8D98A10197F1F798A38F8F89A19AA18B
:1032B00001979AA389A389A19AA1009769F714C0DD
:1032C0006BA17CA18DA19EA10E944900DC01CB01D4
:1032D0009AA389A389A19AA19E8F8D8F8D8D9E8D92
:1032E0000197F1F79E8F8D8F8CE00E94070F80E091
:1032F00090E0A6E9B3E4898F9A8FAB8FBC8F698D7C
:103300007A8D8B8D9C8D20E030E04AE755E40E9459
:103310001F02DC01CB018D8B9E8BAF8BB88F6D892B
:103320007E898F89988D20E030E040E85FE30E943D
:10333000790388232CF481E090E09C8B8B8B3FC039
:103340006D897E898F89988D20E03FEF4FE757E4A4
:103350000E94190318164CF5698D7A8D8B8D9C8D02
:1033600020E030E040E251E40E941F02DC01CB018A
:10337000BC01CD010E944900DC01CB019C8B8B8BF1
:103380000FC080E991E09A8B898B89899A8901978E
:10339000F1F79A8B898B8B899C8901979C8B8B8BFE
:1033A0008B899C89009769F714C06D897E898F8904
:1033B000988D0E944900DC01CB019C8B8B8B8B8903
:1033C0009C89988B8F878F8598890197F1F7988BC7
:1033D0008F878BA58F5F8BA78BA5853008F40FCFC8
:1033E00080E090E8ABE3B5E48B879C87AD87BE8730
:1033F0006B857C858D859E8520E030E04AE755E42D
:103400000E941F02DC01CB018F839887A987BA87AE
:103410006F81788589859A8520E030E040E85FE318
:103420000E94790388232CF481E090E09E838D83B1
:103430003FC06F81788589859A8520E03FEF4FE70F
:1034400057E40E94190318164CF56B857C858D8511
:103450009E8520E030E040E251E40E941F02DC0142
:10346000CB01BC01CD010E944900DC01CB019E8350
:103470008D830FC080E991E09C838B838B819C813D
:103480000197F1F79C838B838D819E8101979E83A9
:103490008D838D819E81009769F717C06F81788534
:1034A00089859A850E944900DC01CB019E838D832A
:1034B0008D819E819A83898389819A810197F1F711
:1034C0009A83898302C083E08CA78CA5AE960FB641
:1034D000F894DEBF0FBECDBFCF91DF910895DF938B
:1034E000CF93CDB7DEB760970FB6F894DEBF0FBEAF
:1034F000CDBF81E08F879E01205F3F4F8AECB901ED
:103500000E94E9098F878F85882309F08AC08889FE
:10351000813009F086C080E090E0A0E2B1E48B87C2
:103520009C87AD87BE876B857C858D859E8520E0D9
:1035300030E04AE755E40E941F02DC01CB018F8393
:103540009887A987BA876F81788589859A8520E0D1
:1035500030E040E85FE30E94790388232CF481E0A7
:1035600090E09E838D833FC06F81788589859A85A1
:1035700020E03FEF4FE757E40E94190318164CF57F
:103580006B857C858D859E8520E030E040E251E4AE
:103590000E941F02DC01CB01BC01CD010E94490049
:1035A000DC01CB019E838D830FC080E991E09C8379
:1035B0008B838B819C810197F1F79C838B838D8119
:1035C0009E8101979E838D838D819E81009769F7EF
:1035D00014C06F81788589859A850E944900DC0135
:1035E000CB019E838D838D819E819A83898389817E
:1035F0009A810197F1F79A8389839E01205F3F4F5B
:103600008AECB9010E94E9098F878F85882349F4E4
:103610008889813031F48091190291E08927809363
:1036200019028F8560960FB6F894DEBF0FBECDBF2E
:10363000CF91DF910895629FD001739FF001829F27
:10364000E00DF11D649FE00DF11D929FF00D839F31
:10365000F00D749FF00D659FF00D9927729FB00DCE
:10366000E11DF91F639FB00DE11DF91FBD01CF01E1
:103670001124089597FB092E07260AD077FD04D060
:1036800049D006D000201AF4709561957F4F0895B7
:10369000F6F7909581959F4F0895A1E21A2EAA1BE7
:1036A000BB1BFD010DC0AA1FBB1FEE1FFF1FA217F2
:1036B000B307E407F50720F0A21BB30BE40BF50BEF
:1036C000661F771F881F991F1A9469F76095709578
:1036D000809590959B01AC01BD01CF01089597FBAA
:1036E000092E05260ED057FD04D0D7DF0AD0001CC6
:1036F00038F450954095309521953F4F4F4F5F4F8F
:103700000895F6F790958095709561957F4F8F4F4E
:103710009F4F0895AA1BBB1B51E107C0AA1FBB1FE7
:10372000A617B70710F0A61BB70B881F991F5A954D
:10373000A9F780959095BC01CD0108952F923F92F5
:103740004F925F926F927F928F929F92AF92BF92B1
:10375000CF92DF92EF92FF920F931F93CF93DF935D
:10376000CDB7DEB7CA1BDB0B0FB6F894DEBF0FBEBA
:10377000CDBF09942A88398848885F846E847D8407
:103780008C849B84AA84B984C884DF80EE80FD8009
:103790000C811B81AA81B981CE0FD11D0FB6F8947F
:0E37A000DEBF0FBECDBFED010895F894FFCF40
:1037AE004E756D6265723D00436F756E7465723D48
:1037BE00004279652E2E4279652E2E21002A2A2A64
:1037CE004552524F522A2A2A00506F776572205363
:1037DE007769746368004552524F522E2E2E212166
:1037EE0021004E554D42455253004F4E4C5921210A
:1037FE00210000000000000000000001020203038F
:10380E000303040404040404040405050505050566
:10381E000505050505050505050506060606060644
:10382E00060606060606060606060606060606062A
:10383E000606060606060606060607070707070714
:10384E0007070707070707070707070707070707FA
:10385E0007070707070707070707070707070707EA
:10386E0007070707070707070707070707070707DA
:10387E0007070707070707070707080808080808C4
:10388E0008080808080808080808080808080808AA
:10389E00080808080808080808080808080808089A
:1038AE00080808080808080808080808080808088A
:1038BE00080808080808080808080808080808087A
:1038CE00080808080808080808080808080808086A
:1038DE00080808080808080808080808080808085A
:1038EE00080808080808080808080808080808084A
:1038FE000808080808080808080803C9010000009D
:10390E000306000003070000020402000400050085
:10391E000600070003010201010004000500060075
:10392E000700030102010103410101040105010623
:10393E000404043738392F343536783132332D4379
:10394E00303D2B02020203020402050302010303AF
:08395E0001030401030501004F
:00000001FF
